:020000040800F2
:10000000D81A0020D5000008412B00084928000814
:1000100000000000000000000000000000000000E0
:10002000000000000000000000000000173E000873
:100030000000000000000000153E0008193E000806
:10004000E7000008E7000008E7000008E7000008F4
:10005000E7000008E7000008E7000008E7000008E4
:10006000E7000008E7000008E7000008E7000008D4
:10007000E7000008E7000008E7000008E7000008C4
:10008000E7000008E7000008E7000008E7000008B4
:10009000E7000008E7000008E7000008E7000008A4
:1000A000E7000008E7000008E7000008E700000894
:1000B000E7000008E7000008E7000008555B0008BB
:1000C0000348854600F082FA00480047D55F0008E3
:1000D000D81A00200448804704480047FEE7FEE79E
:1000E000FEE7FEE7FEE7FEE7953E0008C1000008D8
:1000F00010B5202A04DB0846203AD040002110BD6C
:100100000B46D340D0402024A21A91400843194600
:1001100010BD03460B439B0703D009E008C9121F1B
:1001200008C0042AFAD203E00B780370401C491C73
:10013000521EF9D27047D2B201E00270401C491E33
:10014000FBD270470022F6E710B513460A46044674
:100150001946FFF7F0FF204610BD421C0178401CF5
:100160000029FBD1801A704730B5044600200346B1
:1001700000E05B1C934203D2E05CCD5C401BF8D0F6
:1001800030BD30B505460020034600E05B1C9342BD
:1001900005D2EC5CC85C201A01D1002CF6D130BD30
:1001A00070B50446002903D000202022012310E06E
:1001B000002801D00020C043C046C0460DE02546BF
:1001C000D5408D4205D30D469540641B1D46954094
:1001D00040191546521E002DF1DC214670BDF0B5C8
:1001E0001FB40646002082B00546402401910090CD
:1001F0001BE0019922460F463046FFF779FF049A2B
:10020000059B801A994110D310461946224600F0EA
:10021000EFF9361A8F410197224601200021009FF5
:1002200000F0E6F938184D4100902046641E002881
:10023000DFDC019B00982946324607B0F0BD000084
:10024000F0B507460846584087B0C00F04904800F4
:100250000E46590040084908BC1A884105D2384664
:1002600031461E4617460B460246580040081043CA
:100270004CD0300D039040055900400D490D0590BC
:10028000401A0290402872DA18030121000B090578
:100290000843019004980092002805D00199524229
:1002A0000020884100920190029840210A1A019989
:1002B000009800F09DF905460C466B4607CB00F010
:1002C000A7F9C0197141039A0E0D0023D7175640A4
:1002D0001A467A40164344D0049A002A2DD0029A36
:1002E000012A039A15DC1205C01A91410126360530
:1002F000001C7141D20F059ED20700930192029615
:100300002A46234600F0A4F907B0F0BD384631462E
:10031000FAE71605224A0F46B218C01AB741012162
:100320000905001C4F4100187F41114618187941FA
:10033000E20F10436D19644113E0E2076D081543A5
:100340006408C2071443039A01261205C01A91419A
:100350003605001C7141CE07400830434908C018DB
:1003600051412A46234600F066F9CDE7FFE704989D
:1003700001224000C117121A00238B410498314614
:10038000C417381AA141EEE730B40124E4076340F2
:1003900030BC55E730B40124E407614030BC4FE77E
:1003A0000000E0FFF0B51FB488B00B990998002455
:1003B00048400999C00F490049080991C0070B99A5
:1003C0000090490049080B9109990898A6460843EE
:1003D0001CD00B990A98084318D0099801244000B2
:1003E000420D4800410D099824050003000B2043ED
:1003F00009900B980003000B20430B9050181C49E8
:100400004018002201901446104605E000200146E5
:100410000DB0F0BD032801DA034600E003239C463B
:10042000C11A0AAE0AE05F0008ADED5B4F00F75B52
:100430007D430027AA187C41491C5B1E6145F2DD03
:10044000410004AB5A522104120C0A43240C401CF4
:100450000828DFDB01980290009970460191009016
:10046000059B049A0799069800F0F2F8D0E700007F
:100470000DFCFFFFF0B50C465C4085B0E40FE407CF
:1004800003944C000026640859009446490802462B
:100490000296224321D062460A431ED06200570DC5
:1004A0004A000E032303550D012402462C4924055E
:1004B000781B1B0B360B40182343264361460090E4
:1004C0001C46501AB44103D30098401C009002E02F
:1004D000921800985B41002803DA0020014605B01D
:1004E000F0BD0020012109050746864611E064465B
:1004F0001D46141BB54106D36546521BB3417446D5
:1005000007430C43A646CD074008490828439218E4
:100510005B4105460D43EAD11046184313D06046AF
:10052000194650407140084306D06046101AB34146
:1005300006D20122002306E000220123DB0702E0AD
:100540000122D2435310009874460105381C6141C2
:10055000029C039D0019694100F06DF8BFE700009F
:10056000FD0300004A0009030123090B1B05194381
:100570000A4B10B5520D9A4202DA0020014610BD16
:10058000064B34339A4203DC9A1AFFF7B1FD10BDD3
:10059000034BD21800F02CF810BD0000FF03000040
:1005A000CDFBFFFF10B5002904DB0124E407404226
:1005B0008C412146002B04DB1C460123DB07524201
:1005C000A341994200D1904210BD0000064C012584
:1005D000064E05E0E36807CC2B430C3C98471034EB
:1005E000B442F7D3FFF770FDE46B0008046C000819
:1005F00010B5202A04DB0146203A9140002010BDAE
:10060000914020239C1A0346E3401943904010BDBB
:1006100010B5202A06DBCB170846203A1041C11737
:100620000B4306E00B461341D0402024A21A914010
:100630000843194610BD10B5002B08DA0024401CF1
:10064000614192185B411A4301D14008400010BD3E
:10065000F0B51FB482B005460C0003D0084605F083
:10066000CDFD02E005F0CAFD203002460090214693
:100670002846FFF7BDFF049B059A04460F46184322
:100680001143084314D0184610431BD00098402152
:100690000A1A18460599FFF72BFD05460E46009AE3
:1006A00005990498FFF7A4FF084305D0012004E052
:1006B0002046394607B0F0BD0020C11705430E4360
:1006C0002C43374300990E986305401A7905E40AD4
:1006D00000220C43FD0A0A3002D500200146E9E75A
:1006E0000105101969410C9C0D9D00196941FFF726
:1006F000A2FFDFE770B58C180578401C6B075B0F15
:1007000001D10378401C2A1106D10278401C03E075
:1007100006780E70401C491C5B1EF9D12B0705D4CE
:100720000023521E0DD40B70491CFAE70378401CBD
:10073000CB1A921C03E01D780D70491C5B1C521EE5
:10074000F9D5A142D8D3002070BD00207047002009
:1007500070470000B0B5324C0549002520462A46B6
:1007600003F0C8FC0349204603F0BCFC2846B0BD9A
:10077000880D0020880B002070B50D4604460868DF
:100780000C4EF082F18A3046FFF7DCFC2A683046D6
:100790002146FFF7BEFC29782046FFF7D3FC204D09
:1007A0002846214603F09EFC284603F07CFC0020EE
:1007B00070BDC04688020020F0B581B00C460546E9
:1007C0005720C70000F070FC06461548C059852127
:1007D000890047183868002808D000F065FC801BA5
:1007E0000A28F7D90124204601B0F0BD0C4E30464E
:1007F0002946224603F07EFC304603F0E5FC044621
:1008000000F052FC054638680028ECD000F04CFCA3
:10081000401B0B28F7D30124204601B0F0BDC04691
:100820000C10002072B6704780F30888704772B6CB
:10083000FEE70000F0B581B0054600F035FC064645
:10084000254F3868C00716D13868800601D52020AA
:1008500038603868C00606D43868400703D40024DE
:10086000204601B0F0BD3868C0061FD400203968AA
:1008700049072BD523E00324002DF1D0681C0CD1AF
:100880003868C007E0D03868C007DDD03868C007D6
:10089000DAD03868C007F3D1D6E700F005FC801B3A
:1008A000A842DDD83868C007F7D1CDE77648C169DE
:1008B00002220A43C26110203968490706D57249ED
:1008C000CA6901231343CB61042108433860012422
:1008D000204601B0F0BDC0460C20024010B50024F7
:1008E000E043054948604C6008600C60C861CC6119
:1008F00000F022FC204610BD0C100240B0B50446AA
:1009000000F0D2FB0546601C02D0044800780419B0
:1009100000F0CAFB401BA042FAD3B0BD000000208B
:10092000F0B583B00D460146E34E307E012803D179
:100930000227384603B0F0BD012737760C68DF4840
:100940000291FFF777FF012C14D1002845D1002038
:10095000F061E04C20680425284320602068402195
:1009600001432160D548FFF765FF07462068A8438B
:10097000206032E0002830D100200190C043009573
:100980002860029845688068C0024019854224D2D8
:10099000D04C0198F06120680226304320606560E9
:1009A0002068402101432160EE48FFF743FF0746DE
:1009B0002068B0432060002F0CD10120C0022D1808
:1009C000029948688968C90208188542E64EE0D352
:1009D000019F02E000980560E34E00203076384623
:1009E00003B0F0BDF0B583B0BA4DE8680290DD4CBD
:1009F0002046FFF71FFF002801D003B0F0BDDA4802
:100A000000210191C16128682027384328602868A7
:100A10004026304328602046FFF70CFF2968B94381
:100A200029600028E9D12046FFF704FF0028E4D11F
:100A3000CD480199C161286838432860286830434F
:100A400028602046FFF7F6FE2968B9432960002890
:100A5000D3D120460421029A1140062313402A686C
:100A6000102422432A60002901D0CC2100E0BB21C0
:100A7000002B00D1AA21054A1180FFF7DBFE29686F
:100A8000A143296003B0F0BDB016002000F8FF1F9D
:100A9000072101600B494A6882600A68530704D540
:100AA0003322D2439B0F06D103E04422D2439B0F53
:100AB00001D15522D24302730968090A77220A40FC
:100AC000427370471C200240F0B581B00446A64F27
:100AD000387E012802D1022001B0F0BD01263E7609
:100AE0002068C10709D1810773D4410700D5A2E06E
:100AF000000700D5C1E03046DAE076480669616853
:100B0000A568F54801290FD1FFF794FE002800D011
:100B1000CEE000200090F861FFF764FF002800D0CD
:100B2000C6E03346AB430EE0FFF784FE002800D05A
:100B3000BEE000200090F861FFF754FF002800D0CD
:100B4000B6E033462B43DEB2624D296810220A43D9
:100B50002A60FF2E009808D0594801883140018052
:100B6000DD481E46FFF766FE334600280CD1190A01
:100B7000CAB2FF2A08D05248418811404180D64865
:100B80001E46FFF757FE334600280CD1190CCAB297
:100B9000FF2A08D04A48818811408180CE481E46ED
:100BA000FFF748FE3346002809D1190EFF2906D069
:100BB0004348C2880A40C280C748FFF73BFE296805
:100BC000102291432960002872D1206800268107F5
:100BD0008BD5257BC048FFF72DFE002868D1002665
:100BE000FE613C4F386800952025284338603868FE
:100BF000402101433960B848FFF71CFE3968A9431A
:100C0000009A3B463960B24F002851D11F46186800
:100C10001025284318602A4808380280AE48FFF79C
:100C200009FE3968A9433960A94F002840D12068DE
:100C3000410700D45CE7657BA74E3046FFF7FAFD1D
:100C4000002835D130460026FE61224A1168102363
:100C500000931943116088210D431949891F0D80A4
:100C6000FFF7E8FD1B4A1168009B994311600028BB
:100C70001ED12068000700D43DE7257D2469964EEB
:100C80003046FFF7D7FD002812D130460026FE611E
:100C9000104B1A68294610252A431A602180FFF755
:100CA000C9FD0C4A1168A9431160002800D122E750
:100CB0000021397601B0F0BDB016002050C300000D
:100CC00008F8FF1F0348016880220A4302600020E1
:100CD0007047C04610200240F0B581B00124600387
:100CE0007C4E71680143716000F0DEF905463068A2
:100CF000C00708D0784F00F0D7F9401BB8422CD875
:100D00003068C007F7D13068800601D520203060F8
:100D10003068C00606D43068400703D4002420465B
:100D200001B0F0BD3068C00604D400203168490726
:100D30000FD508E06648C16902220A43C26110204B
:100D40003168490705D56249CA692243CA6104214D
:100D500008433060204601B0F0BD0324204601B0B6
:100D6000F0BDC04650C30000B016002005488168A1
:100D7000890505D46149016061490160002070471F
:100D80000120704708200240F0B585B0504C257E08
:100D9000012D03D10227384605B0F0BD01AD0FC5C6
:100DA0000127277600F080F905464A4E3068C007D3
:100DB00008D0494C00F078F9401BA0422CD830688C
:100DC000C007F7D13068800601D520203060306838
:100DD000C0063F4A09D43068400706D40199022969
:100DE0001DD1009101291ED01EE03068C00604D438
:100DF00000203168490708D40CE0D0690221014382
:100E0000D16110203168490704D5D1693943D161D6
:100E100004210843306040E003272D4A3DE00420D0
:100E20000090012900D10091002501950198D06121
:100E300070680127384370602A0103980499FFF70E
:100E400057F96900029A885200F02EF9044630687A
:100E5000C00706D000F028F9001B1F498842F6D9C8
:100E600015E03068800601D5202030603068C0066B
:100E7000174A17D43068400714D47068012188439A
:100E800070606D1C002700988542CFD105E039467F
:100E900003270F4A70688843706000201076384638
:100EA00005B0F0BD3068C00601D4002004E0D06970
:100EB00002210143D16110203168490704D5D1696D
:100EC0003943D1610421084330603946E2E7C04626
:100ED000B01600200C20024050C300000648C16834
:100EE000090601D4002070470449016004490160EB
:100EF000C068C0B2C00970470420024023016745A2
:100F0000AB89EFCDF0B58AB002900D68002D00D10D
:100F1000B9E05E48029A824201D0052000E0042038
:100F20001723DB06D2180A23DA410092042A00D3E1
:100F3000009000273B463C4608912A460BE01343AD
:100F40003360079B641C0A681046E040BF1C1B1DF1
:100F5000002800D197E001200646A6403240F1D09B
:100F60000490079303200346BB400397DF4349687F
:100F70000D4605406B1E012B0697059113D8019273
:100F8000029A90683840089BDB68039FBB4003438C
:100F90009360C806C00FA0405368B3431646019A39
:100FA0000343736006E0032D029E039F02D10546B2
:100FB000079B1EE0F0680699084008998B68BB40C3
:100FC0000343F360022D079B13D11C2018400F210F
:100FD0008140E3089B00F3181D6A8D43089E316928
:100FE000814029431962079B7068029E0325059082
:100FF0000540BD4030680699084028433060059898
:101000008003800F0899049D9CD0564908682843A6
:1010100008600868284009900C2018400F21814082
:10102000032325469D43099B1A4EAB598B430099D8
:1010300081401943A9510899154EB5684868C30203
:101040000FD51543B560F56883020FD49543F5605D
:10105000756883030FD4954375603368C00310D55A
:101060006DE79543B560F5688302EFD51543F560EC
:1010700075688303EFD5154375603368C00300D5E9
:101080005DE793435CE70AB0F0BDC046001000483E
:101090000004014008000140002A02D018228150BB
:1010A0007047282281507047094800687047C04641
:1010B00000680249016000207047C046AAAA0000EB
:1010C0001B48007802490A68101808607047C0463B
:1010D000D016002080B50648016810220A4302603D
:1010E000032000F007F800F029F8002080BDC0467A
:1010F0000020024070B504467D20C0000C4E3178BF
:10110000FFF74EF801460B480068FFF749F801F079
:1011100081FB0125032C08D8002806D10025E843CF
:1011200021462A4600F02CF87460284670BDC0465F
:1011300000000020140100207047000082B0094820
:101140000168012211430160016811400191019978
:10115000110742680A4342604068084000900098C6
:1011600002B0704718100240002805D41F21084023
:1011700001218140014801607047C04600E100E064
:10118000002805D40322034693430A4A9A1803E031
:101190000C220240064BD2188007C00E8901C9B24A
:1011A0008140FF23834010689843084310607047D4
:1011B00014ED00E000E400E0F0B502685423D15AD9
:1011C00001242143D1525921CD0000214155D65A45
:1011D00002273743D752401984600846F0BD704754
:1011E000B0B528240D060BD5072529404C4300191E
:1011F0001030002A0BD08360012101730020B0BDA4
:101200004C430019152109014018002AF3D1C3806D
:10121000002101730020B0BD80B55B22D20083584D
:1012200028224A438018426A184603F0B7F980BD65
:1012300080B55B22D200835828224A438018592265
:1012400092008258184603F011FA80BD10B50722AB
:101250000A4049B2002908D42821514341181523D6
:101260001B01C91800234B7005E028215143411888
:1012700001234B7410310A7029221201835C012B67
:1012800001D1022010BD841801222270006803F0F1
:10129000E7FE0020207010BDB0B50F220A40037990
:1012A0009A4201D90120B0BD07220A4049B2002963
:1012B00008D428215143411815231B01C9180023C4
:1012C0004B7005E028215143411801234B74103124
:1012D00000248C700A7029221201835C012B01D139
:1012E0000220B0BD851801222A70006803F02CFF8F
:1012F0002C702046B0BD07220A40282151434018D7
:101300005B21890040587047B0B507240C4049B2B2
:10131000002908D428216143411815252D014919B8
:1013200000254D7005E028216143411801254D74C9
:1013300010310A61CB700C70022B01D100220A71AE
:1013400029221201835C012B01D10220B0BD841837
:1013500001222270006803F06BFD00202070B0BDF8
:10136000B0B507240C4028216143411815252D01F3
:101370004C55491900240D4614351CC54C700068A5
:1013800003F036FF2046B0BD10B507220A400379AE
:101390009A4201D9012010BD4BB2002B08D428235A
:1013A0004B43C11815231B01C91800234B7005E0DE
:1013B00028215143411801234B7410310A70012236
:1013C0008A7029231B01C45C012C01D1022010BDAD
:1013D000C4182270006803F0EDFE0020207010BDDC
:1013E00070B507250D402821694341183424012692
:1013F0000E5500244A628B62CC620B634E740D74EE
:101400001031006803F0F4FE204670BDF0B591B0D5
:101410000746006804F0A6FB01041DD4EC49891FAF
:10142000084221D0292000013C1838684421425A42
:10143000E84B13404352384600F0C6FD207801289F
:1014400010D000253D73012020703868294604F033
:10145000D4FB257011B0F0BD386844211091415E75
:10146000002922D411B0F0BD410400D5C6E38104A7
:1014700000D5CCE35921C9007A18C10400D5CEE3C8
:10148000010500D5F0E3010601D500F002FC81055D
:1014900001D500F00CFCC005E4D538684421425A5F
:1014A000EB4B1340435211B0F0BD152109010C91D3
:1014B00079180991014644315322D200BA18079293
:1014C0000123DA030F921A020B92DA020592032229
:1014D0001203039201939A030A920E9720E050217F
:1014E000415ADA4A82185118099C2278D2008B5A44
:1014F000D8490B40E361E288079904F036FB38686D
:101500000188D54A114080220A430280384600F003
:1015100098FD38681099425E01464431002AA1D5F1
:101520000A880F24144007D0A100425E95B2002A19
:101530002FD42806EDD557E10021415ED20668D4AC
:10154000C54A11400F9A11430180C0490918502221
:10155000805A0818397CC9004018001F0088BD490E
:101560000840F862796A08187862002638463146E1
:10157000FFF752FE387B0028CBD0B86A0028C8D1CC
:10158000387B80210143C8B239684C2288523E73AF
:10159000BFE741180A88B04B1A40802313430B80E1
:1015A000282161437B180C995E18317B00297AD081
:1015B000FF215431595C02290D9300D088E050215D
:1015C000415A091832780892D20057182D21C900C3
:1015D0005A585B180A990D4200D094E09B497F5AF3
:1015E0009C490F40D11B00D3AFE000211960BA42E3
:1015F00000D9AEE008998900425A984B1A40984B9E
:101600005A404252690600D4A6E0002F00D0C0E044
:10161000C5E00A0500D562E7002900D479E7018812
:101620008D4A114080220A43028088494118502483
:10163000025B8918099D2A78D2008B5A85490B4094
:10164000EB6110D02A46696900290CD01546D28872
:1016500004F08BFAE8696969081868610021384666
:10166000FFF7E6FD38680188059A114200D050E77F
:10167000039A1140914200D14BE7015B734A8218F3
:10168000535A744C23405352099B1B69002B00D1C1
:10169000EBE13E2B00D917E28C5A5D08019E3340E6
:1016A000EB189B0219E25021415A684A82185118DE
:1016B0003278D2008F5A67490F4062D0F288716940
:1016C00008951D463B4604F050FA2B46089D68E0FD
:1016D00031788A00835A604F3B400F9FC0371F43C9
:1016E0008752835AC9000A185021415A5B4FF1377B
:1016F0003B4248D0554B9A185118091F0F8855493D
:101700000F403CD14BE05149C919091F0F8851497D
:101710000F40D11B2CD200211960BA422BD8089956
:101720008900425A4D4B1A404D4B5A40425269066D
:1017300023D508998900425A474B1A400F9BC03362
:1017400013434352002F1AD129E01960BA4200D83E
:1017500050E7690600D558E708998900425A3E4B80
:101760001A400F9BC03313434352002F11D116E090
:101770001960BA42D3D96906DBD4002F0FD0328961
:1017800008E000270DE0314BD218575A31490F407D
:1017900005D0728971693B4604F0E7F900E0002743
:1017A0000D9BF069C019F0617069C0197061B06972
:1017B000002804D00B2040011858B8420CD93178C9
:1017C0000E9F3846FFF734FD28060DD4A1E6C0462B
:1017D00006040000FFFB00000E9F3868314603F04E
:1017E00007FD280600D494E6600041003868425A9C
:1017F000194B1A400F9B1A434252282161437A1811
:1018000016461036D17C01292CD100219162137F1C
:10181000002B00D124E16B0600D58FE0527C012A19
:1018200000D10AE1002A00D01AE15021415A074AAA
:10183000801840183178C900425A064B1A4042526B
:10184000425A0F9B1A4342520AE1C0460604000066
:10185000FFFE0000FF0300000F0F00000F3F00001D
:1018600080A000000B990D421DD15021415AFA4B26
:101870001B185B183178CC001B191B1F1B88F74CF9
:101880002340946AE51A00D2002595629C4200D854
:10189000E7E0516AC9185162D16AC918D16231466C
:1018A00003F0A6FC35E65021475A0D963178089191
:1018B000C9000918936A144628340646503606961D
:1018C0006E0654D4E44E89190E46CF5BE3490F40AF
:1018D000D91B00D200212160BB427AD90A990D425E
:1018E00007D108998900435ADD4C2340DD4C23433E
:1018F00043523421515C01290E9C00D070E1516AA1
:10190000C9195162D36ADB19D362156A136B144685
:101910003034AB4200D3E9E015463435002B00D11A
:101920002CE100272F7027601D463746537C012B82
:1019300000D0E2E0069B1B88FD523DE1527C012A6B
:1019400000D183E0002A00D08AE05021415AEB4ABE
:10195000101840183178C9004018001F0188E34A68
:101960001140018001880F9A1143018078E0E34E15
:1019700071180291091F0491CF5BDC490F40D91BFC
:1019800000D200212160BB423DD90A990D4207D007
:1019900008998900435AD64C2340D74C23434352DD
:1019A0003421515C01290E9C00D019E1516AC919FA
:1019B0005162D36ADB19D362156A136BAB4200D351
:1019C000B4E01546343500242C70002B00D0AFE075
:1019D000B2E0507C01284AD000280E9C50D1069FCE
:1019E00038883018001F0188C04B194001800188D9
:1019F0000F9A114301803888315A19403152315AB7
:101A0000114331523CE0507C012841D000280E9C0B
:101A100047D1069F3888049E315AB44B1940315241
:101A2000315A0F9A114331523888029E315A194067
:101A30003152315A1143315233E05022825AAF4B66
:101A4000C01880183278D200815209E05022825AA0
:101A5000AA4B181880183278D2008018001F018015
:101A600031783846FFF7D8FB53E58B5A34E0069AB5
:101A700010883018001F00210180108831520E9C00
:101A800020460899FFF7C8FB0A98054211D0A7E045
:101A9000069A10880021049B19521088029A11524C
:101AA0000E9C20460899FFF7B7FB0A98054200D123
:101AB00096E020680D9909788900425A8C4B1A40AB
:101AC0008D4B1A4342528BE0DC065B09002C00D19F
:101AD0005B1E9C028B5A23430F9C23438B5201882D
:101AE000844A1140864A5140018012E55B1B236005
:101AF0003746537C012B00D11CE7002B5CD1069BA1
:101B00001B88FC5A794E3440FC52002D3ED03E2DAD
:101B100047D8DC5B08942E463C46019F3E406F0848
:101B2000BE19B602089F3E431E5345E05C1B2B4680
:101B3000154630352C601F46537C012B19D0002BE5
:101B400049D1069B1B88049EF45A684D2C40F452E0
:101B5000002F20D03E2F32D8049C1D5B08953D46B7
:101B6000019E35407E087519AD02089E35431D5310
:101B700031E0069B1B88049CE7522CE000232B706D
:101B80003D463746537C012BB7D1D3E6DC5B0F9E35
:101B90003443DC5310E0049E9C5B0F9D2C439C530C
:101BA00019E0EE066C09002E00D1641EA402DE5B73
:101BB00026430F9C2643DE53528BABB20DE0FD064D
:101BC0007C09002D00D1641EA402049E9D5B254368
:101BD0000F9C25439D53128BBBB204F03FF80E9C23
:101BE00020680D9909788900425A414B30331340DF
:101BF0000F9AB0325A40425227468AE4386844214C
:101C0000425A404B813B1340435211B0F0BD3868FB
:101C10004421425A3C4B1340435211B0F0BD386846
:101C20004021435A0424A3434352435A0824A34364
:101C300043521078012804D1002111703846FFF773
:101C4000CEFA384600F0D2F938684421425A2F4B78
:101C50001340435211B0F0BD06040000FF03000022
:101C60000F0F000080C0000038684021425A08234E
:101C700013434352024640329388254C1C409480C3
:101C8000425A042313434352384600F0FBF911B083
:101C9000F0BD386840308188802399438180117875
:101CA00000290FD0384600F0EDF911B0F0BD3868CA
:101CB0004421425A174B13404352384600F0A8F9CA
:101CC00011B0F0BD018804230B4303800188082371
:101CD0000B43038001211170808A80083C2303405C
:101CE00053603846FFF77BFA11B0F0BDFF030000E8
:101CF0000F0F00000F3F000080C00000060400002E
:101D000080B0000080C0FFFFFFDF0000FFEF000099
:101D1000FFF70000FFFD0000F0B585B000281FD0E0
:101D200004462920000127187878002804D10020D3
:101D30003870204600F026F903267E70206803F0F4
:101D4000F9F92079002800D10AE10640411E032953
:101D500004970396029107D20021002E48D171E02A
:101D60000125284605B0F0BDFC2303400194274619
:101D700050370022114601267E743A603A627A6238
:101D8000BA62FA743D46173D2E703D46283D2A60E2
:101D90003D462C3D2A603D46303D2A603D463D3D56
:101DA0002A703D46403D29703D463F3D2E703D1F07
:101DB0002A603D46083D2A603D46153D2A703D4655
:101DC000183D4C1C2C703C46383466708D1C3D749C
:101DD000CD1C3826BD55BA64FA643A65E270091D17
:101DE000A0379942C7D1019C049F039E002E29D0A1
:101DF00028252A464A43A71800223A627A62BA6224
:101E0000FA74397401237B74049F012E1AD04F1C7D
:101E100001932B467B43E3181A625A629A62DA7482
:101E20001F74049F0095019D5D74009D022E09D0D2
:101E3000891C4D4363191A625A629A62DA741974E2
:101E400001995974002800D18AE00299032904D22B
:101E500035460021002D58D182E00F214901264648
:101E60006218FC210840002319461446673C237081
:101E70001446783C236014467C3C23601446803C26
:101E8000236014468D3C23701446903C2170144608
:101E90008F3C237014463F3C23701446503C236013
:101EA0001446543C23601446583C23601446653C59
:101EB00023701446683C4D1C25701446173C237053
:101EC0001446283C236014462C3C23601446303CC6
:101ED000236014463D3C23701446403C8D1C257005
:101EE0001360141F23601446083C23601446153CFD
:101EF00023701446183CCD1C2570091DA032814268
:101F0000B3D13446039D002D2AD0282002464A43EF
:101F1000A21815231B01D1542646D4180022226191
:101F20006261A261E27062703446012D18D04C1CCF
:101F3000054665437519EC54EC1822616261A26193
:101F4000E27062703446039D022D09D0891C48431B
:101F50002018C154C018026142618261C27042708F
:101F600007CC0C3C03F0DCF80025257301207870C9
:101F7000A07A012800D0F4E62046FFF71DF9284694
:101F800005B0F0BD10B582B000680D49884201D09F
:101F900002B010BD0120C0050A490A6802430A6068
:101FA00009680140019101981F24002120460A463A
:101FB000FFF7E6F82046FFF7D7F802B010BDC0469D
:101FC000005C00401C100240B0B504464079022875
:101FD00001D0FEF72CFC5B20C5006059012102F006
:101FE0004BFC605902F006FCB0BD000010B5044681
:101FF000407A002806D02B480168062291430160F0
:1020000001F00EFF5B20C000205802F01DFC10BD47
:1020100080B55B21C900405802F020FC80BD10B59E
:1020200029221201835C012B01D1022010BD8418EA
:10203000017301222270006803F0DFFD0020207090
:1020400010BD80B55B21C90042585321C900411819
:10205000104602F025FC80BDB0B5044629200001E1
:10206000215C012901D10220B0BD25180120287072
:10207000206803F063FD206803F04AF80020287010
:10208000B0BD000010B504465B20C000205802F02F
:102090005FFC607A002804D00248016806220A43E7
:1020A000026010BD10ED00E0F0B585B00446807808
:1020B000C0074C4B4FD00120039001071A1F106836
:1020C0000840029006D1106808431060106808406C
:1020D0000490049800920191434E3068C00513D4D7
:1020E00003980702306838433060FEF7DDFF05468D
:1020F0003068384208D1FEF7D7FF401B6428F7D973
:102100000325284605B0F0BD03252802354B196884
:10211000014012D06268024091420ED00398000440
:1021200019681A6802431A601A6882431A600846DE
:102130002E4A10401860C80745D118682B4908403E
:102140006168014319600298002804D1009A106860
:102150000199884310602068C10709D181070FD415
:10216000810616D481031CD400254005C9D521E081
:10217000196903229143A2680A431A618107EFD5C6
:10218000032109041A698A43E16811431961810630
:10219000E8D519691022914322690A431A61810323
:1021A000E2D5196980229143A2690A431A61002588
:1021B0004005A6D51869402188436169014319612A
:1021C000284605B0F0BDFEF76FFF0646604F054B91
:1021D00018688007B1D4FEF767FF801BB842F6D9B4
:1021E0008FE7C0462010024000700040FFFCFFFF58
:1021F000F0B581B0002847D00446534A1368012047
:1022000003408B4208D213680126B3430B4313608B
:10221000126832408A4238D1009121688A074B4BBC
:1022200011D54A0707D507221202484B1B681343F2
:10223000464A1360454B1A68F0239A43A368134338
:10224000424A1360414BC90722D13F490868012621
:102250003040009A904205D90868B0430860086889
:10226000C00712D12078400706D507200002196860
:102270008143E068084318601A681007810F3548E9
:10228000022912D2044650E00126304601B0F0BDCA
:10229000616803290DD01A1F02290FD0012912D11C
:1022A000126892030646F0D511E0032926D12A4C84
:1022B0003BE01A6B92030646E7D508E012689201EC
:1022C0000646E2D503E0126892070646DDD5186897
:1022D0000326B04308431860FEF7E6FE07461C4D90
:1022E0001A4B18680C210140606880008142ACD014
:1022F000FEF7DAFEC01BA842F2D9C6E70321CB03E2
:102300001249896A0F240C401449095D94021A404D
:10231000240F134D2C5D9A4202D033049A4200E000
:102320000D48FDF73DFF4443084B18680006000FB9
:102330000C49085CC4400C4804600320FEF7DAFE38
:102340000026304601B0F0BD0020024004100240DB
:102350008813000000127A00006CDC02326B000867
:10236000226B00080A6B000814010020F0B587B04A
:1023700004460120002C00D145E204902078C007DB
:10238000F94E05940CD071680C200140042900D04E
:1023900090E03068800303D56068002800D120E118
:1023A0002078800721D570680007800F0ED07068F4
:1023B0000C210140082900D09DE00320C003716872
:1023C00001400120C003814200D094E030688007C2
:1023D000059C03D5E068012800D002E13068F821AF
:1023E00088432169C90001433160059C20780007BA
:1023F00024D42078400737D42078C00600D4D3E016
:1024000005984069411D00D1C2E0012800D030E1AB
:10241000706B042101437163706B0121014371638F
:10242000FEF742FE0546706B800700D5B4E0FEF76C
:102430003BFE411B03200229F5D9E4E1706AE16902
:10244000002900D181E0012108437062FEF72CFED3
:102450000546706A8007CCD4FEF726FE401B022892
:10246000F7D9032007B0F0BD012003900107F06900
:102470000840029006D1F0690843F061F069084015
:10248000069006980191E14F3868C0054AD4039838
:102490000402386820433860FEF706FE05463868B7
:1024A00020423FD1FEF700FE401B6428F7D90320ED
:1024B00007B0F0BD71680140082908D10320C003AE
:1024C0007168014001200004814200D161E7616828
:1024D00001204704002900D117E1052900D12BE193
:1024E000012900D12CE1010432688A433260810461
:1024F0003068884327E13068059CE168002936D0C0
:10250000012108433060FEF7CFFD054630688007A3
:1025100000D563E7FEF7C8FD401B0228F6D903206B
:1025200007B0F0BD05988068002800D1B6E0052806
:1025300000D1C9E0012800D1CAE0306A039988437C
:102540003062306A04218843C5E00121884370620B
:10255000FEF7AAFD0546706A800700D449E7FEF73A
:10256000A3FD401B0228F6D9032007B0F0BD0121CE
:1025700088433060FEF798FD05463068800700D438
:1025800033E7FEF791FD411B03200229F5D93AE11B
:10259000706B042188437063706BF8218843059940
:1025A0008969C900014371630598007880060BD5DD
:1025B00071680C2001400C2939D1706B800303D560
:1025C0000598006A01280CD10598446A002C00D1B6
:1025D000E1E070680C210140082905D1012C00D0F0
:1025E000C4E0049807B0F0BD0120020631680492EF
:1025F000914331604706FEF757FD0546022C0BD18B
:10260000049C3068384200D1DEE0FEF74DFD411BEE
:1026100003200229F5D9F6E03068384200D1BAE04B
:10262000FEF742FD411B03200229F5D9EBE071685A
:102630000140082905D10320C0037168014081428F
:10264000BBD0706B0599096A002900D1A9E001216E
:102650000A04104370634C04FEF726FD0546706BB8
:102660002042B1D1FEF720FD411B03200229F6D9FB
:10267000C9E0706B042101437163706B01218843D1
:102680007063FEF711FD0546706B80078CD5FEF771
:102690000BFD411B03200229F6D9B4E0306A0399EF
:1026A00088433062306A042188433062584CFEF718
:1026B000FBFC0546306A80071DD5FEF7F5FC411B83
:1026C0000320A142F6D99EE0306A04210143316221
:1026D000306A0399084330624D4CFEF7E5FC05462D
:1026E000306A800707D4FEF7DFFC401BA042F7D911
:1026F000032007B0F0BD02980028059C00D07BE6BF
:10270000F06901998843F06176E6010432688A43F2
:1027100032608004316881433160FEF7C5FC0546B4
:10272000059C3068384200D13AE6FEF7BDFC411BFB
:1027300003206429F5D966E0810432680A433260D7
:102740000104306808433060FEF7AEFC054630688F
:10275000384200D024E6FEF7A7FC401B6428F6D9D7
:10276000032007B0F0BDC046001002400320C203A2
:1027700070680240F16A059CA36A9A42049D0DD1DB
:102780000F221140236B994208D191040840E16A5D
:102790008842284637D1002007B0F0BD284607B050
:1027A000F0BD01210A04904370634C04FEF77CFCE9
:1027B0000546706B204200D106E7FEF775FC411B11
:1027C00003200229F5D91EE0F06A0F218843059AFB
:1027D000116B0143F1627B20C00371688143D06AB1
:1027E0000843916A01437160306820433060FEF70E
:1027F0005BFC044630683842CDD1FEF755FC011B26
:1028000003200229F6D907B0F0BDC0460070004091
:1028100088130000401E010E01D0012070470749B7
:10282000074A5060074803680B400321890759187D
:10283000016000209060072111607047FFFFFF00DA
:1028400010E000E020ED00E0FEE70000B0B5044637
:102850006B4D28680007810F032916D069480229AB
:1028600014D10321C9032A680A408A4200D166486C
:10287000A96A0F220A40511CFDF792FC0146286804
:102880008002000F801C484300E05F4820602968F8
:102890000906090F5E4A515CC84060602968490515
:1028A000490F5A4A515CC840A060B0BD10B510280D
:1028B0001BD000283FD1524CE06A03210840032876
:1028C00041D0022839D0012844D120680007820F66
:1028D000032A76D04B48022A00D08FE0C903226831
:1028E0000A408A421AD1484818E0454CE06A800301
:1028F000800F032827D002281FD0012845D1206847
:102900000007810F03295CD03E48022976D10321BC
:10291000C90322680A408A4200D13B48A16A0F22BB
:102920000A40511CFDF73CFC014620688002000F64
:10293000801C484310BD002010BD0120C103E06988
:102940008003084010BD201F00688007C1172D4874
:10295000084010BD20680007820F032A33D02948A1
:10296000022A31D1C90322680A408A4200D126488E
:10297000A16A0F220A40511CFDF712FC0146206893
:102980008002000F801C48431EE020680007810F72
:10299000032926D01B48022924D10321C903226818
:1029A0000A408A4200D11848A16A0F220A40511CED
:1029B000FDF7F6FB014620688002000F801C4843AB
:1029C00010E0114810BD1048216822685205520FCE
:1029D0000E4B9A5C0906090F0D4B595CC840D0405C
:1029E00010BD0948216822685205520F074B9A5CB6
:1029F0000906090F064B595CC840D04010BDC046BF
:102A00000410024000127A00006CDC021A6B00080D
:102A10000A6B000870B584B0044600680125C00741
:102A200022D10E4620682A49014070680843F168A7
:102A3000014330690843B169014321600320010368
:102A400062688A43B168114361600002A1688143F2
:102A500070690843A0601F48844208DC2048844213
:102A600014D0204884420AD0284604B070BD1A48C9
:102A7000844204D019488442F6D1002007E001A81E
:102A8000FFF7E4FE0398002805D1EDE71020FFF7DB
:102A90000DFF0028E8D031680029E5D00122D203DB
:102AA000B36993420AD140004A081018FDF778FB39
:102AB0000D4901400007400F401804E04A08101873
:102AC000FDF76EFB80B2E0600025284604B070BDC3
:102AD000F369FFEFFF4B0040004C0040003801401D
:102AE0000044004000480040F0FF000080B510485E
:102AF0001049002201F01BFD002801D0FDF797FED0
:102B00000B480D4901F054FF002801D0FDF78FFE5E
:102B100007480A4901F0DDFA002801D0FDF787FED9
:102B2000034801F05CFF002801D0FDF780FE80BD66
:102B30000C1000205C000020180100203C02002046
:102B4000FEE7000010B5924C60680068C06800287D
:102B500000D1B9E080478108242900D9ADE04000C8
:102B6000784480884000874493009A00A100A80020
:102B7000A800A800A800A800A800A800A800A80015
:102B8000A800A800A800A800A800B000A800A800FD
:102B9000A800A800A800A800A800A800A800A800F5
:102BA000A800A800A800A800A800B700A800A800D6
:102BB000A800A800A800A800A800A800A800A800D5
:102BC000A800A800A800A800A800BE00C500A80092
:102BD000A800A800A800A800A800A800A800A800B5
:102BE000A800A800A800A800A800A800A800A800A5
:102BF000CC00D300A800A800A800A800A800A80046
:102C0000A800A800A800A800A800A800A800A80084
:102C1000A800A800A800A800A800A800A800A80074
:102C2000A800A800A800A800A800A800A800DA0032
:102C3000E100A800A800A800A800A800A800A8001B
:102C4000A800A800A800A800A800A800A800E80004
:102C5000EF00A800A800A800A800A800A800A800ED
:102C6000A800A800A800A800A800A800F600FD0081
:102C7000A800A800A800A800A800A800A800A80014
:102C8000A800A800A800A800A800A80004010B0143
:102C9000606840680068002816D0804710BD6068F2
:102CA0004068406800280FD0804710BD60684068C9
:102CB0008068002808D0804710BD606800680169FE
:102CC000002901D01F20884710BD60684068C06897
:102CD0000028F9D0804710BD60684068406900282E
:102CE000F2D0804710BD6068406800690028EBD0D2
:102CF000804710BD60684068C06A0028E4D0804703
:102D000010BD60684068006A0028DDD0804710BDB3
:102D100060684068006B0028D6D0804710BD6068AE
:102D20004068406A0028CFD0804710BD6068406886
:102D3000406B0028C8D0804710BD60684068806A3A
:102D40000028C1D0804710BD60684068806B0028B3
:102D5000BAD0804710BD6068406880690028B3D051
:102D6000804710BD60684068C06B0028ACD08047C9
:102D700010BD60684068C0690028A5D0804710BDBC
:102D800060684068006C00289ED0804710BDC04637
:102D9000A0020020F0B587B00E4605460024069438
:102DA000FEF79CF81948142101600127059701944A
:102DB00003942C88002C23D0022E21D37608AD1C3E
:102DC0000020029028883F280DD80121C906C002A2
:102DD0004018049003A806A9FDF7A2FD002802D020
:102DE0000298401C0290A74204D2781CAD1CB74246
:102DF0000746E7D30298002802D0012007B0F0BDB3
:102E0000FDF760FF019807B0F0BDC0460C200240FE
:102E100010B586B06C462046FDF73AFE207B06B022
:102E200010BD000010B582B0044600F0B5FF0020D0
:102E3000C1434C4A11604C4A11604C4908604860DB
:102E40008860FDF7EFFC4A480168012211430160E8
:102E50000068104001900198500721680160616886
:102E60004160A1688160E168C160216901616169B7
:102E70004161A1698161E169C161216A0162616A9F
:102E80004162A16A8162E16AC162216B0163616B87
:102E90004163A16B8163E16BC163216C0164616C6F
:102EA0004164A16C8164E16CC164216D0165616D57
:102EB0004165A16D8165E16DC165216E0166616E3F
:102EC0004166A16E8166E16EC166216F0167616F27
:102ED0004167A16F8167E16FC16780202158254854
:102EE00001608421615841608821615881608C2192
:102EF0006158C1609021615801619421615841611C
:102F00009821615881619C216158C161A02161585B
:102F10000162A42161584162A82161588162AC21FB
:102F20006158C162B02161580163B42161584163A5
:102F3000B82161588163BC216158C1630E480168A2
:102F4000032291430160016811430160BFF34F8F79
:102F5000BFF36F8F2068FDF767FC6068804702B0A1
:102F600010BDC04680E100E080E200E010E000E03B
:102F700018100240800000200000014080B5FDF7DD
:102F8000ABFE80BD0078704710B586B0CC280AD063
:102F90006C46207302200090FDF7A0FFFDF7E6FECF
:102FA0002046FDF791FD06B010BDB0B586B00028F3
:102FB00022D0012830D115460C46FDF78FFFFDF7D2
:102FC000D5FE012001900090022D11D32078617868
:102FD0000902081802906846FDF776FD042D07D314
:102FE000A078E1780902081802906846FDF76CFDA8
:102FF0000024204606B0B0BDFDF770FFFDF7B6FE19
:103000000024E04302900194012000906846FDF7FF
:103010005BFD204606B0B0BD0124204606B0B0BD21
:10302000F0B581B00C460546D61D07208643FDF756
:1030300055FF002E0AD00027E259E919E01943682C
:103040000320FDF7A1FE0837B742F5D3FDF73AFE9E
:1030500001B0F0BD06480749016006214160064AFB
:10306000826002610B4B07C31A600449016070471C
:103070000030004055550000FF0F0000AAAA0000D4
:1030800080B50448FEF714F8002801D0FDF7CFFB07
:1030900080BDC046C802002070B5184C20680028CA
:1030A0000DD00025082603E008366D1C854206D2A7
:1030B000A15909680029F7D088472068F4E770BD56
:1030C00070B50E4C2168002911D025460835002026
:1030D000064603E00835761C8E4209D22A689268BB
:1030E000002AF7D09047012804D02168F2E7002099
:1030F000C0B270BD65600120C0B270BDA0020020EA
:10310000F0B583B002920191EA4A1168002934D0E7
:10311000E94E58364F42002504E02D1D7A19B0368D
:10312000002A39D03346583B1B68834204D83346C3
:10313000543B1B68834221D87C19621C0123A242A4
:103140002AD332462C3A1268824204D83246283AB0
:103150001268824223D8A21C1ED03268824202D852
:10316000726882421DD8E21C16D0F26A8242D4D81C
:10317000326B8242D1D9ED1C00E0002501238D4243
:103180000AD22C206843CC490818826A002A03D04E
:103190000198029990470346184603B0F0BD6D1C94
:1031A000ECE7AD1CEAE7C046F0B50146E948036824
:1031B0000020002B34D00222D41AE74A58325E4253
:1031C000032304E01B1DF518B032032D28D0174649
:1031D000583F3F688F4204D81746543F3F688F429C
:1031E0001FD8F718022F1BD015462C3D2D688D4295
:1031F00004D81546283D2D688D4214D8E518032DB6
:103200000ED015688D4202D855688D420DD8002F1A
:1032100006D0D56A8D42D5D8156B8D42D2D905E03E
:10322000F0BDDB1E02E09B1E00E05B1ECA492C20A5
:1032300058430818C068F0BD70B50146C54802681B
:10324000002A34D0C44B58335442002004E0001DFF
:103250002518B033002D28D01D46583D2D688D42CD
:1032600004D81D46543D2D688D4225D825186E1C66
:103270001BD21E462C3E36688E4204D81E46283E7F
:1032800036688E4215D8AE1C0FD01E688E4202D80A
:103290005E688E420FD8ED1C07D0DD6A8D42D6D80D
:1032A0001D6B8D42D3D9C01C70BD104670BD00206F
:1032B00070BD401C70BD801C70BDC04680B5FFF75E
:1032C000A7FDAA38411E884180BD80B5FFF7AAFD41
:1032D00080BD0000F0B583B0029201919D4A116853
:1032E000002934D09C4E58364F42002504E02D1D55
:1032F0007A19B036002A39D03346583B1B688342CE
:1033000004D83346543B1B68834221D87C19621C85
:103310000123A2422AD332462C3A1268824204D8B0
:103320003246283A1268824223D8A21C1ED0326844
:10333000824202D8726882421DD8E21C16D0F26A1C
:103340008242D4D8326B8242D1D9ED1C00E00025F4
:1033500001238D420AD22C2068437F490818426A13
:10336000002A03D00198029990470346184603B0FB
:10337000F0BD6D1CECE7AD1CEAE7C04680B5FFF779
:10338000FDFD80BD80B502467248036800208B4277
:1033900008D92C234B437049C9180969002901D069
:1033A0001046884780BDC046B0B56A490A68022AFF
:1033B0001DD82C2353430468674DEC50EB18446828
:1033C0005C6084689C60C468DC6004691C6144695A
:1033D0005C6184699C61C469DC61046A1C62446A42
:1033E0005C62806A9862501C08600020B0BD0120B9
:1033F000B0BDC04680B5012803D0AA20FFF7C4FDA8
:1034000080BDBB20FFF7C0FD80BD0000F0B583B0DC
:1034100000AC0DC44F4A1068002834D04E4F5837C6
:103420004542002604E0361DAA19B037002A39D0DB
:103430003B46583B1B688B4204D83B46543B1B68B9
:103440008B4221D8AB195A1C01249A422AD33A46FE
:103450002C3A12688A4204D83A46283A12688A42BC
:1034600023D89A1C1ED03A688A4202D87A688A42C7
:103470001DD8DA1C16D0FA6A8A42D4D83A6B8A422E
:10348000D1D9F61C00E00026012486420AD22C2065
:10349000704331490818C369002B03D000AA07CA3A
:1034A00098470024204603B0F0BD761CECE7B61C1C
:1034B000EAE7C046D8020020880F0020F0B581B0AE
:1034C0000092244B1A68002A32D0234D58355642B8
:1034D000002404E0241D3319B035002B34D02F46CE
:1034E000583F3F68874204D82F46543F3F68874281
:1034F0001FD837197B1C27D22B462C3B1B688342D5
:1035000004D82B46283B1B6883421FD8BB1C1BD00A
:103510002B68834202D86B68834219D8FB1C13D0F6
:10352000EB6A8342D6D82B6B8342D3D9E41C00E0EC
:103530000024944208D22C226243074B9A18536904
:10354000002B01D0009A984701B0F0BD641CF0E751
:10355000A41CEEE7D8020020880F002000787047F6
:10356000F0B587B015460C46FDF7B8FCFDF7FEFB3D
:103570001F4814210160002D37D0217801A8017364
:1035800002210191FDF7A0FA012D2ED0617801A84A
:10359000417304210191FDF797FA032D25D3A178FA
:1035A00001A80175134E059608270197FDF78CFABF
:1035B000032D1AD0E17801A801750197B11C05917E
:1035C000FDF782FA082D10D3012002900190207996
:1035D000617909020818A17909044018E1790906FE
:1035E0004018039001A8FDF76FFA07B0F0BDC04680
:1035F0000C20024004F8FF1F10B582B0044600F012
:10360000CBFB0020C1434C4A11604C4A11604C492D
:10361000086048608860FDF705F94A4801680122A2
:103620001143016000681040019001985007216823
:10363000016061684160A1688160E168C1602169E1
:10364000016161694161A1698161E169C161216AC9
:103650000162616A4162A16A8162E16AC162216BB1
:103660000163616B4163A16B8163E16BC163216C99
:103670000164616C4164A16C8164E16CC164216D81
:103680000165616D4165A16D8165E16DC165216E69
:103690000166616E4166A16E8166E16EC166216F51
:1036A0000167616F4167A16F8167E16FC16780202A
:1036B0002158254801608421615841608821615862
:1036C00081608C216158C160902161580161942111
:1036D000615841619821615881619C216158C161A3
:1036E000A02161580162A42161584162A82161585A
:1036F0008162AC216158C162B02161580163B4217B
:1037000061584163B82161588163BC216158C1632C
:103710000E48016803229143016001681143016072
:10372000BFF34F8FBFF36F8F2068FDF77DF86068A0
:10373000804702B010BDC04680E100E080E200E0BA
:1037400010E000E01810024080000020000001405E
:1037500000787047F0B5930702D0FC231A40121D81
:10376000002A1ED00823C4182646083ECD182F462E
:10377000083F3F6837601E1F964212D2261F2F1F38
:103780003F68376093420CD2CE58C6501E1D9642F9
:1037900007D26D6865601C46103408339342234697
:1037A000E1D3F0BD07490A68012A09D8531C0B6010
:1037B000D200891802688A604068C860002070479B
:1037C00001207047A0020020F0B58DB001267004E2
:1037D00023490A6802430A600A6802400692069872
:1037E000B0034A6802434A60496801400691059661
:1037F0000396022002907002019006980320009028
:1038000004900920C40601AD20462946FDF77AFB45
:10381000B702019720462946FDF774FB3105114890
:1038200002680A4302600099490502688A43B105AB
:103830005118016000210B910997089132030792FA
:10384000E122520206920C910C210A91041F06A952
:103850002046FFF7DFF82068304320600DB0F0BD50
:103860001410024004380140F0B583B0FFF726FD84
:103870001F21002804D0084600F0D2F903B0F0BDA3
:1038800002917925284600F0CBF900F047F904466B
:1038900000F044F922460746674021020C180F2326
:1038A000214699432D4EB1421FD10190154600F09B
:1038B00035F9874245D130460D308442029903D014
:1038C0000E363440B442D6D125494D700198087067
:1038D0000120C006244AFFF7FDFC002837D01F2135
:1038E000084600F09DF903B0F0BD0195651C1C4829
:1038F0000570290A4170841C02E04F406D1E0DD0F6
:1039000000F00CF9064600F009F901467140154A2D
:103910009542F2D866702070A41CEEE7FCB200F06D
:10392000FDF8A0420299019CA5D10120C006F049F2
:103930000D4AFFF7E5FB2146084600F071F903B098
:10394000F0BD0299084600F06BF903B0F0BD792193
:10395000084600F065F903B0F0BDC046F0FF000076
:10396000E00200204102000084040000B0B5792488
:10397000204600F055F90B2000F052F93125284679
:1039800000F04EF9002000F04BF9012000F048F95A
:10399000022000F045F9112000F042F9212000F04A
:1039A0003FF9284600F03CF9442000F039F9632043
:1039B00000F036F9732000F033F9822000F030F97E
:1039C000922000F02DF9204600F02AF9B0BD000049
:1039D000B0B59B4C2068800604D4FFF751FB2068EB
:1039E0008006FAD525892068800604D4FFF748FBB5
:1039F00020688006FAD520896840C0B2FF2801D02F
:103A00001320C543E8B2B0BD00487047A4000020B1
:103A100010B57924204600F003F9012000F000F9E8
:103A2000042000F0FDF8482000F0FAF8204600F0ED
:103A3000F7F810BDB0B57924204600F0F1F8312038
:103A400000F0EEF80025284600F0EAF8284600F0DD
:103A5000E7F8204600F0E4F8B0BDF0B581B0FFF71C
:103A60002DFC00282BD1792000F0DAF800F056F870
:103A7000064600F053F8044605460096754000F0EF
:103A80004DF80646454000F049F80746454000F02D
:103A900045F8A84213D10098000621040818310205
:103AA0004018C4192046FFF77FFB002807D02046A6
:103AB000FFF77AFB0221C943C01E884204D81F20A9
:103AC00000F0AEF801B0F0BD792000F0A9F8204672
:103AD000FFF7FBFB01B0F0BD10B5594C2168002089
:103AE00009041AD52168490417D42068800604D433
:103AF000FFF7C6FA20688006FAD520897920A081D0
:103B000021680120490608D42168490605D42168A6
:103B1000490602D421684906F2D510BD10B5484CBB
:103B20002068800604D4FFF7ABFA20688006FAD537
:103B30002089C0B210BDC046F0B581B0FFF7BEFB12
:103B4000002843D1792000F06BF8FFF7E7FF064625
:103B5000FFF7E4FF0446054600967540FFF7DEFFD9
:103B600006464540FFF7DAFF07464540FFF7D6FF18
:103B7000A8422BD1009800062104081831024018F1
:103B8000C4192046FFF710FB00281FD0792000F051
:103B900047F8FFF7C3FF0646FF254540FFF7BEFF86
:103BA000A84213D1792000F03BF82046FFF744FBF0
:103BB0000546761C20462946FFF7E4FB00F030F866
:103BC000761E641C002EF5D101B0F0BD1F2000F060
:103BD00027F801B0F0BD10B5FFF770FB002803D047
:103BE0001F2000F01DF810BD7924204600F018F8C1
:103BF0000120FFF7FFFB204600F012F8FFF7BEFBA5
:103C000010BD10B57924204600F00AF8204600F0D7
:103C100007F80020FFF7EEFBFFF7B0FB10BD000038
:103C2000074988810868400608D40868400605D41A
:103C30000868400602D408684006F3D57047C046BD
:103C40001C380140F0B581B0FFF738FB00284AD19D
:103C50007920FFF7E5FFFFF761FF0646FFF75EFFFC
:103C60000446054600967540FFF758FF0646454056
:103C7000FFF754FF07464540FFF750FFA84232D1F7
:103C8000009800062104081831024018C419204683
:103C9000FFF78AFA002826D000947920FFF7C0FFAA
:103CA000FFF73CFF0646451C00272B4CFFF736FF6D
:103CB000E05546407F1CBD42F8D1FFF72FFF8642FA
:103CC00011D12549009C20462A46FFF7F7FB7920B1
:103CD000FFF7A6FF2046FFF767FA032801D1FFF799
:103CE0004DFB01B0F0BD1F20FFF79AFF01B0F0BD02
:103CF000E0020020F0B581B0FFF7E0FA002822D101
:103D00007920FFF78DFFFFF709FF0546441C0026C9
:103D1000114FFFF703FFB8554540761CB442F8D168
:103D2000EDB2FFF7FBFEA8420DD10120C1060A4A01
:103D30002346FFF76BFB04467920FFF771FF002C49
:103D400006D001B0F0BD1F20FFF76AFF01B0F0BD43
:103D5000FFF714FB01B0F0BDE0020020B0B5FFF7A3
:103D6000ADFA002803D01F20FFF75AFFB0BD792419
:103D70002046FFF755FF0120C106002002460346FA
:103D8000FFF744FB05462046FFF74AFF002D00D011
:103D9000B0BDFFF7F3FAB0BD80B5FCF79FFD80BD65
:103DA000B0B50E4C0E4D2560FFF72EFE606020462C
:103DB000FFF7F8FC00201435A560E06008342046C9
:103DC000FFF7F0FCFFF768F90648FFF7EDFA064841
:103DD000FFF7EAFA0548FFF7E7FAB0BDB80200209E
:103DE0000800002030000020E800002078000020BB
:103DF00010B5074C2068002802D0012805D010BD5E
:103E0000FFF75EF920600128F9D1FEF79BFE10BD97
:103E1000DC0200207047704780B5FDF751F980BD86
:103E2000B0B598B00BAC201D3021FCF78BF9012008
:103E300013900E9022200B900025149510200F90C7
:103E4000059504950395029501952046FEF78EFA97
:103E5000002801D072B6FEE70A9509950320089064
:103E60000720079007A80121FEF7C2F9002801D01A
:103E700072B6FEE7069504950295054800906846DF
:103E8000FEF712F9002801D072B6FEE718B0B0BDF7
:103E9000210002001148026801210A4302604268C1
:103EA0000F4B1340436002680E4B134003608A04BB
:103EB0000368934303603F221204436893434360C3
:103EC000C26A0F239A43C262026B074B134003631B
:103ED000426B8A43426300218160704700100240B8
:103EE0000CB8FF08FFFFF6FE2CFEFCFFF0B581B01A
:103EF0000C4605465720C1006F58002F16D01420DD
:103F000060432E18F069002809D0691889682822B2
:103F100062438918096AFCF743F900290AD0852011
:103F2000800000263E50304601B0F0BD02263046EB
:103F300001B0F0BD1C3630460026066028462146FA
:103F40003246334600F00EFD304601B0F0BD70B58C
:103F500005465720C600A859812292008418284699
:103F600000F0C7FBA060A859002808D0A919206854
:103F700008344968CA6821469047002070BD022075
:103F800070BDB0B50446812100F0F8FA0025E56265
:103F90000121204600F0F2FA5B20800025508221AA
:103FA000204600F0EBFA25645720C0002158002974
:103FB00007D02418606840688047206800F032FF0E
:103FC00025600020B0BD10B55721C90042185368C4
:103FD000002B0BD04158012040020C182078FF28FC
:103FE00004D062789B689847FF202070002010BDA5
:103FF0000A21018000487047D80100204321018038
:10400000004870475001002043210180004870475C
:10401000940100204321018000487047E401002002
:10402000F0B583B00446007C012675020028029595
:1040300000D0402581210227204601913A462B4697
:1040400000F0B4FBE662204631463A462B4600F0CB
:10405000ADFB5B20800026508221032208232046EE
:1040600000F0A4FB26648720800000F0DDFE5721CD
:10407000C9006050002813D06118019A9200851879
:1040800048680068804700262E616E61207C002809
:10409000029B00D040232A680121204600F09AFBB1
:1040A000304603B0F0BD10B55721C9004258002A70
:1040B00005D0037C0121002B03D0402302E0022025
:1040C00010BD4B028124A400125900F083FB002094
:1040D00010BD002904D0AF2292008150002070470B
:1040E000022070475722D2008058812292008150CE
:1040F000002070475723DB00C0584123DB00C1502C
:10410000C018826000207047F0B583B00E460546A7
:10411000A72080002918CF6902A80024047001A8F4
:10412000048030576022024011D0202A37D1F28813
:10413000002A19D000283AD40120400238184270D1
:10414000717801702846394600F07DF819E07078E2
:104150000B2813D00A2817D0002820D1087803286C
:104160001DD101A9022214E07078096A8B6800242D
:10417000314622469847204603B0F0BD0878032810
:104180000DD1204603B0F0BD0878032807D102A95D
:104190000122284600F076F8204603B0F0BD2846FC
:1041A000314600F046F80224204603B0F0BD707896
:1041B000096A8B6839469847F2882846394600F0E4
:1041C00061F8204603B0F0BD80B55721C9004158C1
:1041D000002907D04122D2008918CA68002A03D0DA
:1041E000012080BD022080BD0122CA608B6803636C
:1041F0000A689BB2812100F0B5FB002080BD80B52C
:10420000AD229200825852689047002080BD10B5C0
:1042100013460A460024214600F0DCFA204610BD71
:1042200010B513460A460024214600F09BFB2046A9
:1042300010BD10B50446802100F068FB0021204627
:1042400000F064FB10BDB0B513460A465721890043
:104250004350A524A4000325055141184B600024B8
:10426000214600F0B7FA2046B0BD10B5A52189005F
:1042700005224250002421462246234600F0AAFA95
:10428000204610BD10B513460A46A5218900022418
:104290004450C36103620024214600F063FB2046C2
:1042A00010BD10B5A52189000422425000242146EA
:1042B0002246234600F056FB204610BD10B50A46A4
:1042C00003A02A4C214600F0DBF8204610BDC04672
:1042D00043444320436F6E666967000012200880E4
:1042E000004870472802002010B50A4603A01F4C62
:1042F000214600F0C5F8204610BDC0464344432087
:10430000496E746572666163650000000420088070
:10431000004870474C02002010B50A4603A0134C19
:10432000214600F0ADF8204610BDC04653544D69FB
:1043300063726F656C656374726F6E69637300009E
:1043400010B50A4603A0094C214600F099F8204612
:1043500010BDC04653544D33322056697274756196
:104360006C20436F6D506F7274000000680700206E
:1043700010B51A200880404801688268521879D028
:1043800041683E4800234376C3754375C374437444
:10439000C3734373C3724372C3714371C3700F23FA
:1043A00013401407640F052C01D3373300E030337A
:1043B0000374540F130F052C01D3373300E030334F
:1043C00083704C0F0B0F052C01D3373300E03033D3
:1043D000837413065C0F1B0F052C01D3373300E0E9
:1043E0003033837313055C0F1B0F052C01D3373358
:1043F00000E03033037313045C0F1B0F052C01D353
:10440000373300E03033837213035C0F1B0F052C2E
:1044100001D3373300E03033037213025C0F1B0FFC
:10442000052C01D3373300E0303383711201530F71
:10443000120F052B01D3373200E0303202710A032C
:10444000530F120F052B01D3373200E030320276C2
:104450000A02530F120F052B01D3373200E030321E
:10446000827509014A0F090F052A01D3373100E08F
:1044700030310175014810BDACF7FF1F500200201C
:1044800070B5002852D00378002B14D0041D0023EF
:10449000E51E2D78002D10D0A51E2D78002D0ED0F4
:1044A000651E2D78002D0CD0251D1B1D2478002C99
:1044B0002C46EDD107E0002305E0012402E00224B0
:1044C00000E003242343DBB25B009B1C1380032228
:1044D0004A700B700378002B28D0021D0220C5B251
:1044E0004B5501231D4300244C55D51E2D78002D1E
:1044F0001CD0861CF6B28D551E438C55951E2D780A
:10450000002D13D0061DF6B28D551E438C55551E39
:104510002D78002D0AD0861DF6B28D553343CC542C
:10452000141D08301378002B2246D8D170BD10B569
:10453000002811D0A7239B00C3189C69002C01D030
:1045400000249C61002900D059610270012119707A
:1045500000F0D6F8002010BD022010BD80B50B225F
:1045600092018058FCF798FE042802D30220C0B2C2
:1045700080BDC100F548C840C0B280BD80B50B22E7
:1045800092018058FCF762FE042802D30220C0B2D8
:1045900080BDC100ED48C840C0B280BDF0B581B05B
:1045A0000446A5208000271800290CD0386A4269EB
:1045B0000220002A05D03B7A032B02D120469047E7
:1045C000002001B0F0BD3868002816D0042814D0AF
:1045D000022816D1206A666AB0421CD9801B20626C
:1045E00083B2204611461A46FFF71AFE00212046E4
:1045F0000A460B4600F0EEF803E08021204600F06A
:1046000085F9387B012803D10020387301B0F0BD53
:10461000002001B0F0BDE56928463146FBF7C0FD3A
:10462000B54212D3002910D1786885420DD20025F9
:10463000204629462A46FFF7F3FD7D60204629469D
:104640002A462B4600F0C6F8DBE7386AC168002925
:1046500004D0387A032801D120468847802120469B
:1046600000F054F92046FFF700FECAE770B5054692
:10467000A5208000281800290CD0026A9269022423
:10468000002A05D0007A032802D12846904700244A
:10469000204670BD01680024052915D00329F7D1F3
:1046A0000B2149016B181E6859688E4213D9701A84
:1046B0001860884200D3084683B2284611461A463D
:1046C000FFF7A5FD204670BD04602846214600F096
:1046D0001DF9204670BD016A0969002904D0007ADD
:1046E000032801D1284688472846FFF7DAFD2046EF
:1046F00070BD80B50B2292018058FCF7FCFD80BD97
:1047000070B50B218A011D4981505B23DB00C85025
:1047100000234B814B720223CB71194B0B60412359
:10472000DB008B8086180846FDF7F6FA002801D0DA
:10473000FCF77DF830680024182321462246FCF758
:104740004FFD3068802158232246FCF749FD306830
:104750008121C0232246FCF743FD306801210D0270
:104760002B4610332246FCF73BFD3068822122465F
:104770002B46FCF735FD204670BDC046D012002008
:10478000005C00407F220A40282353430B22920101
:104790008058C01849B2002904D4A9214900401802
:1047A00000787047123000787047000010B514464A
:1047B0000B22920180581A462346FCF7A5FD0428D7
:1047C00002D30220C0B210BDC1006E48C840C0B2C2
:1047D00010BDC04610B50B24A4010059FCF7C0FD64
:1047E000042802D30220C0B210BDC1006548C840F1
:1047F000C0B210BDF0B581B0044600254026294660
:104800002A463346FFF7D2FF2B20C000012727504E
:104810002018C660802120462A463346FFF7C6FF8F
:10482000A52080002550201807726662A7610561E7
:104830006560416A002904D0006A42680021204670
:104840009047002001B0F0BDA7218900425C042AF6
:1048500002D14018417801700020704780B5A7212F
:104860008900425C032A05D141188969C969002978
:1048700000D08847002080BD0174002070470000F0
:1048800080B50B2292018058FDF7C9FB042802D3A2
:104890000220C0B280BDC1003A48C840C0B280BD4D
:1048A000F0B581B00446A5208600A7193D46143511
:1048B000284600F069F80120A051788B7860397D96
:1048C0001F20084002280AD001280FD0002814D148
:1048D0002046294600F088F8002001B0F0BD2046AF
:1048E000294600F0BDF9002001B0F0BD2046294660
:1048F00000F05FFA002001B0F0BD802001402046AA
:1049000000F004F8002001B0F0BD000080B50B22DB
:1049100092018058FCF738FD042802D30220C0B26F
:1049200080BDC1001748C840C0B280BD80B50B2112
:1049300089014058FDF790FB042802D30220C0B241
:1049400080BDC1000F48C840C0B280BD0002010256
:10495000A7218900425C0423435440184270002080
:104960007047000010B50B24A4010059FCF738FD76
:10497000042802D30220C0B210BDC1000148C840C3
:10498000C0B210BD000201020A7802704A7842707B
:104990008A78CB781B029A1842800A794B791B02DD
:1049A0009A1882808A79C97909028918C18070476A
:1049B000002904D0AD2292008150002070470220CF
:1049C000704780B5AD2292008258002A05D0126847
:1049D0009047411E8841400080BD022080BD80B5C7
:1049E000FFF7A4FF002080BD70B582B00D460446DD
:1049F000097860200840A7218900661800280CD09B
:104A0000402802D0202800D074E0B0698268204697
:104A100029469047002002B070BD6878092800D967
:104A200068E0C04678440079400087440411631A66
:104A300063203D63515D3078401E02285AD8E888D3
:104A4000022857D1B068002800D1B9E00320B8E0AF
:104A50003078401E02284DD868880128DAD100201D
:104A600003E068880128D5D10120B060EAE0A88879
:104A700000283FD1E88800283CD168887F2839D8B1
:104A80003178032936D0B070C5B220462946FFF7E9
:104A9000F7FE2046FFF705FC002D00D1D8E00220EC
:104AA0003070002002B070BD01A80021018068882C
:104AB000010A491E06291DD87944097949008F4405
:104AC000033A4019194D5500207C71690A68A3E02A
:104AD000E88801280ED13078411E022926D2002014
:104AE000A0602146083124E068885C4D2870C1B27E
:104AF00002290AD380212046FFF708FF0021204623
:104B0000FFF704FF002002B070BD3078032837D0D3
:104B1000022846D1002900D194E003203070616062
:104B20002046FFF74EFF0228E4D08BE00328E1D1B6
:104B3000211D012249E0B069217C00294BD0C16AC6
:104B40004AE0C0B20528D5D87844007940008744AF
:104B5000025154575A5D7069426859E0207C002820
:104B6000C8D1B069416B01A8884757E0207C002874
:104B7000C0D1B069016B01A88847014607202FE02A
:104B800000292FD0606801285CD0C1B22046FFF711
:104B900036FB297861602046FFF713FF022851D1C8
:104BA000A8E780212046FFF7B1FE00212046FFF74D
:104BB000ADFE29782046FFF722FB002002B070BD31
:104BC0000120E06021460C3102222046FFF75AFB0B
:104BD000002002B070BD816A01A88847014602200A
:104BE00048701CE000206060022030702046FFF713
:104BF00006FB27E0706982680AE07069C26807E016
:104C00007069026904E07069426901E07069826953
:104C1000002A00D16EE7207C01A99047014601A837
:104C20000288002A0AD0E888002807D0824200D3F0
:104C3000024601A802802046FFF724FBE8880028EE
:104C400000D0E7E62046FFF72CFB002002B070BD45
:104C500001203070002002B070BDC0466407002003
:104C6000B0B50A460446097860200840A7218900AB
:104C7000631800280AD0402801D0202816D198694E
:104C800083682046114698470020B0BD11795078BE
:104C9000002815D0012821D003284CD118780328EA
:104CA0002CD0022847D148061FD144E0802120465D
:104CB000FFF72CFE00212046FFF728FE0020B0BDA4
:104CC000552080001A78032A29D0022A33D14A06B7
:104CD00031D1090664D52146143162E018780328E1
:104CE00033D0022827D1480625D02046FFF70EFEF4
:104CF00080212046FFF70AFE0020B0BD5088002822
:104D000008D17F20084005D0D088002802D1204655
:104D1000FFF7FCFD2046FFF7C4FA0020B0BD0F22CC
:104D20000A4014235343E21880291BD22B23DB00B3
:104D3000D258002A19D180212046FFF7E7FD002133
:104D40002046FFF7E3FD0020B0BD50880028B5D114
:104D5000480602D02046FFF701FC2046FFF7A1FAE3
:104D60000020B0BD9269002AE5D07F220A401423BA
:104D70005343E518802901D3143500E02D18480667
:104D800005D02046FFF7FEFC411E884100E00020D0
:104D90002860022220462946FFF774FA0020B0BDA1
:104DA00021180020086002222046FFF76BFA00203D
:104DB000B0BDB0B50D46044609786020084003D068
:104DC000402801D0202814D1A72080002018017885
:104DD000491E022903D8A9880906490E13D080214B
:104DE0002046FFF793FD00212046FFF78FFD0020AE
:104DF000B0BD80212046FFF789FD00212046FFF746
:104E000085FD0020B0BD8069826820462946904714
:104E1000E9880029F5D10028F3D12046FFF741FAAF
:104E20000020B0BD704700000048704768090020AE
:104E3000F0B584B002460E78B0001318145A8048BA
:104E40002040CC78032C039408D800277C44247994
:104E50006400A74401050B08012405E0012705E0D3
:104E6000784C641C01E0032464022043764C204308
:104E700018801888CB4D2840304320431880087B89
:104E8000724D0028029705D003983746022827D094
:104E9000284626E05020105A0190CC880127BC43B8
:104EA000F00000964E78002E7AD010180199401824
:104EB000B902445218884006BA4A05D518881040ED
:104EC0002946403101431980303218881040039937
:104ED0000129029E7FD128431880304604B0F0BDDE
:104EE0005B481C885B4E264006431E805020145AA7
:104EF000FE0096190127BD027519FE430F89374040
:104F00002F53105A28184A8932408280B64A1446D4
:104F1000F13418882040497800291CD00028029ECE
:104F2000A04D04D01888284078490143198018887A
:104F30004006464C05D5188828402146403101439B
:104F40001980303518882840039901291FD021463F
:104F5000203148401CE00028029E924D04D0188861
:104F600028406A490143198018884006374C05D506
:104F70001888284021464031014319801888104084
:104F800035494140198030351888284003E02043D6
:104F900018801888104020431880304604B0F0BDB7
:104FA0001646503610180397BF02C019019D4719C5
:104FB000BC80851D3788E85B224C0440EC530969AE
:104FC00000290ED03E2912D8785B039C0C4049087A
:104FD00009198C0208E0203568401880304604B07A
:104FE000F0BD785B194C803C04436E4E0BE0CC0660
:104FF0004809002C6B4E00D1401E8002795B0143B2
:10500000124C803C0C437C53198877480446F13499
:10501000214204D0198831403C4C0C431C8000993B
:105020000029029E03D0198801400C4802E0118833
:105030000140094848401880304604B0F0BDC046E1
:105040008F89FFFFFF0300008080FFFF808000004A
:105050008081FFFF0F0E000080B0FFFF80A0FFFFE8
:10506000F0B50A789200875A80184A780B7B264957
:10507000002B28D05C4E3346F1331F40494B002AA9
:105080002AD04B4D002F03D002881A402A430280B9
:105090001C46303402885206324603D506881E402C
:1050A0000E43068006881E402E4306800B46403B7A
:1050B000058825401D430580038813404039194366
:1050C00001800020F0BD002A15D0364C2246303237
:1050D0007B060B46F0D5EBE7002F04D002881A4080
:1050E0000A4C144304801A463032048864060D4684
:1050F0003446D3D4D6E73C4A1346F1331F42DBD0C3
:10510000284C2B4BD4E7C046C080000080C0FFFF76
:105110005821425A0123DB031343435200207047B6
:105120004022012181520021815240308180018240
:10513000084670474021425A024B13404352002018
:105140007047C0467F400000B0B50A7B002A01D0FE
:105150000020B0BD0A789200845A80184A78002A4C
:105160000ED062060F4A104B05D5048814401D4628
:10517000203525430580C9780129E9D030320BE07C
:10518000194A1146F131094B0C4205D00188054CF2
:105190000C40074961180180018811405940018085
:1051A0000020B0BD0F0F0000A080000080B0000004
:1051B00080C0000010B54B78002B04D0094A002BAA
:1051C00004D1094B03E0064A002BFAD0074B0978BB
:1051D0008900445A1C4054404452002010BDC0462F
:1051E0008090FFFF9080FFFF0F3F00003F0F000007
:1051F000F0B58AB007464A78012A56D18B690C6906
:10520000A34200D323460A7B002A7FD00E6AC878C7
:10521000022800D0C1E007930D78A8003B18385A47
:10522000FD4A024068000890A64200D805E10694B5
:10523000FC4802431A80079C301B059008621888BE
:105240005022BA5AED003B4650334006099704936A
:10525000039500D5A3E178198018012292020292E9
:1052600080184480A2B248690190002A234600D1E8
:1052700058E30998029C00190D894519501C4608ED
:1052800003273740701E002F00D190E20090019C50
:1052900020786278120210182880012F00D08AE24C
:1052A000A71CAD1C0098064621E3087B002853D0BC
:1052B000CB78012B00D1A5E0022B00D0ACE0002A76
:1052C00000D047E25020385A381801220792920243
:1052D000089280183C46871C0878C200B85ADF4BF9
:1052E0001840B8520D6909945034DD4E002D00D19C
:1052F000D4E13E2D00D9D5E1D05B06902B4607982E
:1053000003406808C01883020698D5E10122900284
:105310001C04089000D135E109973C18CD88641928
:105320009DB26D1C6E08032737404D69701E002F1B
:1053300000D10BE1079028786A78120210182080BB
:10534000012F00D055E1AD1CA41C07980646099F0B
:10535000032800D3FDE015E15020385A099738188A
:105360000124A2028018821D0878C300D05ABB4DC8
:105370000540D5520E698D69AF1B50D38F61B54280
:1053800051D2002D099F52D03E2D00D9A6E0985A47
:105390002C406D082C19A4024CE0F01A0862087821
:1053A0008200BC5A5022BA5A65069EB2C400400020
:1053B000089038198018012292028018002D6BD4B1
:1053C0004380A84BA64C002E00D11DE10997B818C8
:1053D0000A898518701C4608032737404969701EE2
:1053E000002F00D116E1079008784A7812021018B1
:1053F0002880012F00D024E1891CAD1C07980646A7
:10540000099FFAE10C698B691D1B74D38D61A3425E
:1054100075D2002A77D0BEE101200AB0F0BD002786
:105420008F61B542ADD33546002D099FACD1985A56
:105430008D4CB03C04439C52ADE18B483038024364
:105440001A80E80038185022BA5A801801229202B5
:10545000801846803004834B814C00D1D6E00997F8
:10546000B8180A898518B0B2401C4608032737408F
:105470004969701E002F00D1D0E0079008784A7863
:10548000120210182880012F00D0EFE0891CAD1CFB
:1054900007980646099FD9E1C380724B704C002ED5
:1054A00000D1B5E00997B8184A898518701C4608DC
:1054B000032737404969701E002F00D1B0E00790E4
:1054C00008784A78120210182880012F00D0D9E0FD
:1054D000891CAD1C07980646099FE0E1E8066C09A7
:1054E000002800D1641EA0029C5A04435E48B038D4
:1054F000204398524FE100258D61A34289D3234672
:10550000002A00D047E15020385A3818012207926B
:105510009202089280183D46871C0878C200B85A4B
:105520004E4C2040B852099550354D4E002B00D1BD
:10553000B6E03E2B00D9DBE0D05B06901C46079816
:1055400004405808001984020698DBE0099F0328EC
:1055500018D328786A78120210182080A878EA7880
:1055600012021018608028796A7912021018A0803F
:10557000A879EA7912021018E0800834361F08353D
:10558000002EE6D15020385A089AD21910180978FE
:10559000CA00801843804800324B314CFFE0781934
:1055A00080180122920202928018C480A2B2486937
:1055B0000190002A234600D11DE20998029C00199F
:1055C0004D894519501C460803273740701E002F8F
:1055D00000D1EEE00090019C207862781202101851
:1055E0002880012F00D0F2E0A71CAD1C00980646D1
:1055F000E6E1A878EA78120210186080022F13D131
:10560000B61E2D1D241D17E00898C8E00898C6E0B6
:105610000898C4E0099FF0E00F0E0000099F15E113
:10562000099F3CE18081000028796A7912021018F4
:10563000A080F61EAD1DA41D099F0798032888D2DF
:10564000A0E78878CA78120210186880022F00D06C
:10565000C9E0B61E091D2D1DCDE0C046FF030000A8
:10566000B08000003F0F0000B080FFFF8878CA784C
:10567000120210186880022F00D0DDE0B61E091D4E
:105680002D1DE1E08878CA78120210186880022F78
:1056900000D0FAE0B61E091D2D1DFEE0D05B09E02A
:1056A000D05B2DE0E8066B09002800D15B1E9B0251
:1056B000D05B18433346B03B03430898D353099F4C
:1056C000C0192388C018841DA05AF34B1840A0525B
:1056D000002D09D03E2D32D8105B079E2E406B085E
:1056E0009B199E02064334E0105BB03E064330E057
:1056F000D8065C09002800D1641EA402D05B2043B8
:105700003446B03C04430898D453099FC0192C88F0
:105710000019851DA85AE04C2040A852002B0AD041
:105720003E2B2DD8505B079C1C405B081B199B022D
:10573000034353532FE0505BB03E06432AE0E80694
:105740006B09002800D15B1E9802135B0343B03E37
:105750001E431653C86900281DD008788200BB5A22
:10576000F1480340834201D0002B14D1B818EF4A0E
:10577000303A03881340EE4A9A18103202800AE049
:10578000D8065B09002800D15B1E9802535B0343D7
:10579000B03E1E43565308784000E64CE64B4000AE
:1057A000395A19406140395200200AB0F0BD019FBA
:1057B0009DE0019F04E1A078E27812021018688051
:1057C000022F00D08AE0B61E271D2D1D8EE0A07886
:1057D000E278120210186880022F00D0E7E0B61EAF
:1057E000271D2D1DEBE008794A7912021018A880B8
:1057F000F61E891DAD1D099F0798032801D2089840
:10580000CDE708784A781202101828808878CA787C
:1058100012021018688008794A7912021018A880BC
:105820008879CA7912021018E8800835361F0831C5
:10583000002EE6D10898B2E708794A7912021018CA
:10584000A880F61E891DAD1D099F0798032801D267
:105850000898A4E708784A781202101828808878F7
:10586000CA7812021018688008794A791202101852
:10587000A8808879CA7912021018E8800835361F86
:105880000831002EE6D1089889E708794A79120292
:105890001018A880F61E891DAD1D099F07980328C2
:1058A00001D208987BE708784A78120210182880FD
:1058B0008878CA7812021018688008794A7912022A
:1058C0001018A8808879CA7912021018E880083563
:1058D000361F0831002EE6D1089860E720796279FA
:1058E00012021018A880F61EA71DAD1D00980328EF
:1058F00018D338787A78120210182880B878FA7895
:1059000012021018688038797A7912021018A8806B
:10591000B879FA7912021018E8800835361F08376E
:10592000002EE6D10198C6184E61059D0698854265
:1059300001D8002200E0EA1A099F049C03980A6239
:10594000069A954200D82B46029D2818C019228835
:105950008018C3809AB2754B724C002A17D0781900
:1059600049894118501C450803272F40681E002F05
:105970000FD0079030787278120210180880B61C89
:10598000012F08D1891C07980546099F80E00898D7
:1059900005E7099F7CE03078727812021018488081
:1059A000B61C022F099F6AD1AD1E091D6FE0207938
:1059B000627912021018A880F61EA71DAD1D00986E
:1059C000032818D338787A78120210182880B8780B
:1059D000FA7812021018688038797A791202101851
:1059E000A880B879FA7912021018E8800835361FB5
:1059F0000837002EE6D10198C6184E61059D06981D
:105A0000854201D8002200E0EA1A099F049C03980D
:105A10000A62069A954200D82B46029AD2191018AB
:105A20002488001943809DB2404B3E4C002D16D077
:105A300008891118681C450803272F40681E002F8D
:105A40000FD0079030787278120210180880B61CB8
:105A5000012F08D1891C07980546099F42E0089844
:105A60009DE6099F3EE03078727812021018488057
:105A7000B61C022F099F2CD1AD1E091D31E03078D4
:105A80007278120210188880ED1EB61C891D0798C6
:105A9000032803D2089882E6FF030000307872786A
:105AA000120210180880B078F2781202101848809C
:105AB00030797279120210188880B079F279120266
:105AC0001018C88008312D1F0836002DE6D108981F
:105AD00065E630787278120210188880ED1EB61CC8
