:020000040800F2
:1000000078140020D5000008692500081125000893
:1000100000000000000000000000000000000000E0
:100020000000000000000000000000006D25000836
:1000300000000000000000006B2500086F2500088C
:10004000E7000008E7000008E7000008E7000008F4
:10005000E7000008E7000008E7000008E7000008E4
:10006000E7000008E7000008E7000008E7000008D4
:10007000E7000008E7000008E7000008E7000008C4
:10008000E7000008E7000008E7000008E7000008B4
:10009000E7000008E7000008E7000008E7000008A4
:1000A000E7000008E7000008E7000008E700000894
:1000B000E7000008E7000008E7000008AD4200087C
:1000C0000348854600F074FA0048004731470008AD
:1000D000781400200448804704480047FEE7FEE704
:1000E000FEE7FEE7FEE7FEE7ED250008C100000899
:1000F00010B5202A04DB0846203AD040002110BD6C
:100100000B46D340D0402024A21A91400843194600
:1001100010BD03460B439B0703D009E008C9121F1B
:1001200008C0042AFAD203E00B780370401C491C73
:10013000521EF9D27047D2B201E00270401C491E33
:10014000FBD270470022F6E710B513460A46044674
:100150001946FFF7F0FF204610BD421C0178401CF5
:100160000029FBD1801A704730B5054600200346B0
:1001700000E05B1C934205D2EC5CC85C201A01D104
:10018000002CF6D130BD70B50446002903D0002004
:100190002022012310E0002801D00020C043C046E7
:1001A000C0460DE02546D5408D4205D30D4695400D
:1001B000641B1D46954040191546521E002DF1DC6A
:1001C000214670BDF0B51FB40646002082B005463A
:1001D0004024019100901BE0019922460F463046D1
:1001E000FFF786FF049A059B801A994110D31046A9
:1001F0001946224600F0EEF9361A8F410197224641
:1002000001200021009F00F0E5F938184D410090D1
:100210002046641E0028DFDC019B009829463246F8
:1002200007B0F0BDF0B507460846584087B0C00F8C
:10023000049048000E46590040084908BC1A8841FD
:1002400005D2384631461E4617460B460246580030
:10025000400810434CD0300D039040055900400D2C
:10026000490D0590401A0290402872DA18030121C6
:10027000000B09050843019004980092002805D05E
:100280000199524200208841009201900298402139
:100290000A1A0199009800F09DF905460C466B4634
:1002A00007CB00F0A7F9C0197141039A0E0D002386
:1002B000D71756401A467A40164344D0049A002A6B
:1002C0002DD0029A012A039A15DC1205C01A914119
:1002D00001263605001C7141D20F059ED2070093FE
:1002E000019202962A46234600F0A4F907B0F0BD19
:1002F00038463146FAE71605224A0F46B218C01AA8
:10030000B74101210905001C4F4100187F411146EA
:1003100018187941E20F10436D19644113E0E207A8
:100320006D0815436408C2071443039A0126120599
:10033000C01A91413605001C7141CE074008304378
:100340004908C01851412A46234600F066F9CDE716
:10035000FFE7049801224000C117121A00238B41C5
:1003600004983146C417381AA141EEE730B401248D
:10037000E407634030BC55E730B40124E407614032
:1003800030BC4FE70000E0FFF0B51FB488B00B9918
:100390000998002448400999C00F4900490809916B
:1003A000C0070B990090490049080B9109990898DA
:1003B000A64608431CD00B990A98084318D0099800
:1003C00001244000420D4800410D09982405000316
:1003D000000B204309900B980003000B20430B9067
:1003E00050181C494018002201901446104605E0A0
:1003F000002001460DB0F0BD032801DA034600E0FD
:1004000003239C46C11A0AAE0AE05F0008ADED5B0B
:100410004F00F75B7D430027AA187C41491C5B1EF7
:100420006145F2DD410004AB5A522104120C0A432B
:10043000240C401C0828DFDB0198029000997046CC
:1004400001910090059B049A0799069800F0F2F834
:10045000D0E700000DFCFFFFF0B50C465C4085B016
:10046000E40FE40703944C00002664085900944606
:10047000490802460296224321D062460A431ED012
:100480006200570D4A000E032303550D0124024656
:100490002C492405781B1B0B360B4018234326439D
:1004A000614600901C46501AB44103D30098401C8A
:1004B000009002E0921800985B41002803DA0020C7
:1004C000014605B0F0BD002001210905074686461A
:1004D00011E064461D46141BB54106D36546521B08
:1004E000B341744607430C43A646CD07400849086C
:1004F000284392185B4105460D43EAD11046184344
:1005000013D06046194650407140084306D06046FB
:10051000101AB34106D20122002306E00022012373
:10052000DB0702E00122D243531000987446010514
:10053000381C6141029C039D0019694100F06DF86F
:10054000BFE70000FD0300004A0009030123090B77
:100550001B0519430A4B10B5520D9A4202DA0020CE
:10056000014610BD064B34339A4203DC9A1AFFF75A
:10057000BFFD10BD034BD21800F02CF810BD0000D9
:10058000FF030000CDFBFFFF10B5002904DB0124B1
:10059000E40740428C412146002B04DB1C4601232A
:1005A000DB075242A341994200D1904210BD0000A6
:1005B000064C0125064E05E0E36807CC2B430C3CB6
:1005C00098471034B442F7D3FFF77EFDE05300089C
:1005D0000054000810B5202A04DB0146203A91405F
:1005E000002010BD914020239C1A0346E34019438C
:1005F000904010BD10B5202A06DBCB170846203AE4
:100600001041C1170B4306E00B461341D040202494
:10061000A21A91400843194610BD10B5002B08DA04
:100620000024401C614192185B411A4301D14008EB
:10063000400010BDF0B51FB482B005460C0003D0D9
:10064000084604F041F902E004F03EF92030024689
:10065000009021462846FFF7BDFF049B059A0446FB
:100660000F4618431143084314D0184610431BD0BB
:10067000009840210A1A18460599FFF739FD0546EA
:100680000E46009A05990498FFF7A4FF084305D089
:10069000012004E02046394607B0F0BD0020C11714
:1006A00005430E432C43374300990E986305401AC7
:1006B0007905E40A00220C43FD0A0A3002D5002025
:1006C0000146E9E70105101969410C9C0D9D0019CF
:1006D0006941FFF7A2FFDFE770B58C180578401C71
:1006E0006B075B0F01D10378401C2A1106D10278F9
:1006F000401C03E006780E70401C491C5B1EF9D1BB
:100700002B0705D40023521E0DD40B70491CFAE7A9
:100710000378401CCB1A921C03E01D780D70491C15
:100720005B1C521EF9D5A142D8D3002070BD002019
:100730007047002070470000B0B5324C05490025D5
:1007400020462A4602F082F80349204602F076F855
:100750002846B0BDD0070020D005002070B50D465A
:10076000044608680C4EF082F18A3046FFF7EAFC36
:100770002A6830462146FFF7CCFC29782046FFF74F
:10078000E1FC204D2846214602F058F8284602F0A8
:1007900036F8002070BDC04696010020F0B581B04B
:1007A0000C4605465720C70000F0B0F9064615482C
:1007B000C0598521890047183868002808D000F002
:1007C000A5F9801B0A28F7D90124204601B0F0BD05
:1007D0000C4E30462946224602F038F8304602F0E8
:1007E0009FF8044600F092F9054638680028ECD0DE
:1007F00000F08CF9401B0B28F7D30124204601B0F0
:10080000F0BDC046D009002072B6FEE710B5002446
:10081000E043054948604C6008600C60C861CC61E9
:1008200000F0B4F9204610BD0C100240B0B50446EB
:1008300000F06CF90546601C02D0D248007804191B
:1008400000F064F9401BA042FAD3B0BDF0B589B006
:100850000B461721C906049041180A20C141009196
:100860000629069304D3A848B02103F0EFFD069BA8
:100870001868010C02D180B2002804D1A248B1212D
:1008800003F0E4FD069B01200390586888498842E4
:1008900008DC122800D9FFE0039981408548014215
:1008A0001DD1F9E0844988420CDC112109048842F9
:1008B00015D009214904884211D021210904884218
:1008C0000DD0E9E011214904884208D03121090402
:1008D000884204D019214904884200D0DCE01F6816
:1008E000002F00D1E1E075480499814205D0052030
:1008F00000990429029105D205E0042000990429F9
:10090000029100D302900398000401900022164641
:1009100015460BE03943059A21606D1C1F68384667
:10092000E840121DB61C002800D1BEE0039CAC407C
:100930002740F2D0059258680322014607921140E1
:100940004A1E012A1FD8D868032801D8022805D1D9
:10095000C2216D4803F07AFD069BD868B040079924
:10096000B140049B9A688A4302439A6006984068A3
:10097000C106C90FA9405A68A2430A435A60069BA0
:100980000146079A1140032914D098680328079C50
:1009900005D3D3215C4803F059FD069B9868B0400D
:1009A0002146B1401C46049BDA688A430243DA6060
:1009B000234660680146079A1140022923D1009816
:1009C000052804D3E021504803F040FD069B186938
:1009D000082805D31C46E1214B4803F037FD206968
:1009E0001C21059A11400F228A40EB089B00049CB1
:1009F000E3181C6A944388402043186206984068B4
:100A00000146079A1140B140B240049C23689343C9
:100A10000B432360069B8003800F059A00D17CE77F
:100A2000654B1868039908431860186808400890D7
:100A30000C2010400F2181402A46079B9A43089BB7
:100A4000204C13598B43029981401943069B115145
:100A50001B4CA1685868C2020BD53943A160E168FC
:100A600082020BD4B943E160616882030BD4B943BD
:100A70000AE0B943A160E1688202F3D53943E1603D
:100A800061688203F3D5394361602168019A10429D
:100A900000D03FE7B9433EE71B48B22103F0D6FC44
:100AA000069B1F68002F00D01DE709B0F0BDC046AF
:100AB000FFFF10000F000600FFFF2100001000489C
:100AC000000401400800014070B516460C4605467A
:100AD000002906D0022E0BD2002E12D018352C6021
:100AE00070BDD1204100084803F0B0FC022EF3D3C2
:100AF000D1204000411C044803F0A8FC18352C60AC
:100B000070BD28352C6070BD64520008054800682F
:100B10007047C0461B48007802490A6810180860F0
:100B20007047C0467410002080B506480168102246
:100B30000A430260032000F007F800F029F80020C3
:100B400080BDC0460020024070B504467D20C00034
:100B50000C4E3178FFF717FB01460B480068FFF792
:100B600012FB01F0BBFC0125032C08D8002806D19C
:100B70000025E84321462A4600F032F874602846F2
:100B800070BDC04600000020240000207047000017
:100B900082B00948016801221143016001681140D7
:100BA00001910199110742680A4342604068084078
:100BB0000090009802B070471810024080B50028DD
:100BC00006D41F210840012181400448016080BDF6
:100BD00014489D2103F03AFC80BDC04600E100E0CE
:100BE000B0B50C460546042903D30E488A2103F00C
:100BF0002DFC002D05D40320294681430B480818FD
:100C000003E00C20284008494018A907C90EA2019A
:100C1000D2B28A40FF238B4001689943114301609F
:100C2000B0BDC0462052000814ED00E000E400E032
:100C3000F0B502685423D15A01242143D1525921DD
:100C4000CD0000214155D65A02273743D7524019CB
:100C500084600846F0BD7047B0B528240D060BD55A
:100C6000072529404C4300191030002A0BD083601F
:100C7000012101730020B0BD4C4300191521090169
:100C80004018002AF3D1C380002101730020B0BDB9
:100C900080B55B22D200835828224A438018426ADA
:100CA000184602F027F880BD80B55B22D200835839
:100CB00028224A438018592292008258184602F08E
:100CC00081F880BD10B507220A4049B2002908D436
:100CD00028215143411815231B01C91800234B70CB
:100CE00005E028215143411801234B7410310A704B
:100CF00029221201835C012B01D1022010BD84182E
:100D000001222270006802F057FD0020207010BD03
:100D1000B0B50F220A4003799A4201D90120B0BD33
:100D200007220A4049B2002908D42821514341181A
:100D300015231B01C91800234B7005E028215143DE
:100D4000411801234B74103100248C700A70292241
:100D50001201835C012B01D10220B0BD8518012254
:100D60002A70006802F09CFD2C702046B0BD07225E
:100D70000A402821514340185B21890040587047A0
:100D8000B0B507240C4049B2002908D4282161439A
:100D9000411815252D01491900254D7005E0282120
:100DA0006143411801254D7410310A61CB700C70FC
:100DB000022B01D100220A7129221201835C012B2E
:100DC00001D10220B0BD841801222270006802F017
:100DD000DBFB00202070B0BDB0B507240C402821FB
:100DE0006143411815252D014C55491900240D4624
:100DF00014351CC54C70006802F0A6FD2046B0BD3D
:100E000010B507220A4003799A4201D9012010BD8A
:100E10004BB2002B08D428234B43C11815231B01C8
:100E2000C91800234B7005E02821514341180123C4
:100E30004B7410310A7001228A7029231B01C45C93
:100E4000012C01D1022010BDC4182270006802F0EC
:100E50005DFD0020207010BD70B507250D402821D4
:100E600069434118342401260E5500244A628B62DE
:100E7000CC620B634E740D741031006802F064FD97
:100E8000204670BDF0B591B00746006803F016FA31
:100E900001041DD4EC49891F084221D029200001FA
:100EA0003C1838684421425AE84B134043523846B4
:100EB00000F0D0FD2078012810D000253D730120DE
:100EC00020703868294603F044FA257011B0F0BD4F
:100ED000386844211091415E002922D411B0F0BD40
:100EE000410400D5C6E3810400D5CCE35921C900F3
:100EF0007A18C10400D5CEE3010500D5F0E3010660
:100F000001D500F002FC810501D500F00CFCC00504
:100F1000E4D538684421425AEB4B1340435211B098
:100F2000F0BD152109010C91791809910146443150
:100F30005322D200BA1807920123DA030F921A0241
:100F40000B92DA02059203221203039201939A0391
:100F50000A920E9720E05021415ADA4A821851181D
:100F6000099C2278D2008B5AD8490B40E361E28871
:100F7000079903F0A6F938680188D54A1140802204
:100F80000A430280384600F0A2FD38681099425E9C
:100F900001464431002AA1D50A880F24144007D005
:100FA000A100425E95B2002A2FD42806EDD557E164
:100FB0000021415ED20668D4C54A11400F9A114300
:100FC0000180C04909185022805A0818397CC9008C
:100FD0004018001F0088BD490840F862796A081867
:100FE0007862002638463146FFF752FE387B0028EB
:100FF000CBD0B86A0028C8D1387B80210143C8B261
:1010000039684C2288523E73BFE741180A88B04BBA
:101010001A40802313430B80282161437B180C99CD
:101020005E18317B00297AD0FF215431595C0229A6
:101030000D9300D088E05021415A09183278089267
:10104000D20057182D21C9005A585B180A990D4231
:1010500000D094E09B497F5A9C490F40D11B00D39C
:10106000AFE000211960BA4200D9AEE008998900CA
:10107000425A984B1A40984B5A404252690600D443
:10108000A6E0002F00D0C0E0C5E00A0500D562E769
:10109000002900D479E701888D4A114080220A4353
:1010A0000280884941185024025B8918099D2A78DA
:1010B000D2008B5A85490B40EB6110D02A466969F2
:1010C00000290CD01546D28803F0FBF8E86969695D
:1010D0000818686100213846FFF7E6FD3868018886
:1010E000059A114200D050E7039A1140914200D175
:1010F0004BE7015B734A8218535A744C2340535296
:10110000099B1B69002B00D1EBE13E2B00D917E2B4
:101110008C5A5D08019E3340EB189B0219E2502166
:10112000415A684A821851183278D2008F5A67495A
:101130000F4062D0F288716908951D463B4603F066
:10114000C0F82B46089D68E031788A00835A604FCA
:101150003B400F9FC0371F438752835AC9000A186C
:101160005021415A5B4FF1373B4248D0554B9A18BA
:101170005118091F0F8855490F403CD14BE0514988
:10118000C919091F0F8851490F40D11B2CD20021CA
:101190001960BA422BD808998900425A4D4B1A401F
:1011A0004D4B5A404252690623D508998900425A4C
:1011B000474B1A400F9BC03313434352002F1AD1A1
:1011C00029E01960BA4200D850E7690600D558E70F
:1011D00008998900425A3E4B1A400F9BC033134373
:1011E0004352002F11D116E01960BA42D3D96906D3
:1011F000DBD4002F0FD0328908E000270DE0314BFF
:10120000D218575A31490F4005D0728971693B464F
:1012100003F057F800E000270D9BF069C019F0615A
:101220007069C0197061B069002804D00B204001BA
:101230001858B8420CD931780E9F3846FFF734FD64
:1012400028060DD4A1E6C04606040000FFFB0000FE
:101250000E9F3868314602F077FB280600D494E6EA
:10126000600041003868425A194B1A400F9B1A43DC
:101270004252282161437A1816461036D17C012942
:101280002CD100219162137F002B00D124E16B0649
:1012900000D58FE0527C012A00D10AE1002A00D05B
:1012A0001AE15021415A074A801840183178C90084
:1012B000425A064B1A404252425A0F9B1A4342521C
:1012C0000AE1C04606040000FFFE0000FF03000024
:1012D0000F0F00000F3F000080A000000B990D428F
:1012E0001DD15021415AFA4B1B185B183178CC00A4
:1012F0001B191B1F1B88F74C2340946AE51A00D268
:10130000002595629C4200D8E7E0516AC9185162F5
:10131000D16AC918D162314602F016FB35E6502178
:10132000475A0D9631780891C9000918936A1446F6
:1013300028340646503606966E0654D4E44E891973
:101340000E46CF5BE3490F40D91B00D2002121603C
:10135000BB427AD90A990D4207D108998900435AAC
:10136000DD4C2340DD4C234343523421515C0129A1
:101370000E9C00D070E1516AC9195162D36ADB1921
:10138000D362156A136B14463034AB4200D3E9E0E4
:1013900015463435002B00D12CE100272F70276033
:1013A0001D463746537C012B00D0E2E0069B1B888C
:1013B000FD523DE1527C012A00D183E0002A00D099
:1013C0008AE05021415AEB4A101840183178C90080
:1013D0004018001F0188E34A1140018001880F9ADC
:1013E0001143018078E0E34E71180291091F0491C6
:1013F000CF5BDC490F40D91B00D200212160BB42EA
:101400003DD90A990D4207D008998900435AD64C14
:101410002340D74C234343523421515C01290E9C75
:1014200000D019E1516AC9195162D36ADB19D3623C
:10143000156A136BAB4200D3B4E015463435002473
:101440002C70002B00D0AFE0B2E0507C01284AD0D5
:1014500000280E9C50D1069F38883018001F018844
:10146000C04B1940018001880F9A114301803888D0
:10147000315A19403152315A114331523CE0507CBB
:10148000012841D000280E9C47D1069F3888049E31
:10149000315AB44B19403152315A0F9A11433152DB
:1014A0003888029E315A19403152315A1143315213
:1014B00033E05022825AAF4BC01880183278D200E5
:1014C000815209E05022825AAA4B181880183278AB
:1014D000D2008018001F018031783846FFF7D8FB12
:1014E00053E58B5A34E0069A10883018001F00210B
:1014F0000180108831520E9C20460899FFF7C8FBE6
:101500000A98054211D0A7E0069A10880021049B92
:1015100019521088029A11520E9C20460899FFF722
:10152000B7FB0A98054200D196E020680D9909782A
:101530008900425A8C4B1A408D4B1A4342528BE021
:10154000DC065B09002C00D15B1E9C028B5A2343F6
:101550000F9C23438B520188844A1140864A514094
:10156000018012E55B1B23603746537C012B00D1C1
:101570001CE7002B5CD1069B1B88FC5A794E34403B
:10158000FC52002D3ED03E2D47D8DC5B08942E4601
:101590003C46019F3E406F08BE19B602089F3E437D
:1015A0001E5345E05C1B2B46154630352C601F460C
:1015B000537C012B19D0002B49D1069B1B88049E1C
:1015C000F45A684D2C40F452002F20D03E2F32D8D0
:1015D000049C1D5B08953D46019E35407E087519AB
:1015E000AD02089E35431D5331E0069B1B88049CC9
:1015F000E7522CE000232B703D463746537C012BED
:10160000B7D1D3E6DC5B0F9E3443DC5310E0049E7D
:101610009C5B0F9D2C439C5319E0EE066C09002E39
:1016200000D1641EA402DE5B26430F9C2643DE53DA
:10163000528BABB20DE0FD067C09002D00D1641E7B
:10164000A402049E9D5B25430F9C25439D53128B52
:10165000BBB202F0AFFE0E9C20680D99097889009C
:10166000425A414B303313400F9AB0325A404252E3
:1016700027468AE438684421425A404B813B134054
:10168000435211B0F0BD38684421425A3C4B1340DC
:10169000435211B0F0BD38684021435A0424A3439B
:1016A0004352435A0824A34343521078012804D1DB
:1016B000002111703846FFF7CEFA384600F0DCF909
:1016C00038684421425A2F4B1340435211B0F0BDA9
:1016D00006040000FF0300000F0F000080C00000A0
:1016E00038684021425A082313434352024640328D
:1016F0009388254C1C409480425A04231343435240
:10170000384600F005FA11B0F0BD386840308188E5
:10171000802399438180117800290FD0384600F04A
:10172000F7F911B0F0BD38684421425A174B134005
:101730004352384600F0B2F911B0F0BD01880423DD
:101740000B430380018808230B43038001211170A0
:10175000808A80083C23034053603846FFF77BFAB9
:1017600011B0F0BDFF0300000F0F00000F3F00009D
:1017700080C000000604000080B0000080C0FFFFB1
:10178000FFDF0000FFEF0000FFF70000FFFD00009B
:10179000F0B585B0002827D004462920000127187D
:1017A0002068AA49884203D09848872102F04EFE5B
:1017B0007878002804D100203870204600F028F9FD
:1017C00003267E70206802F061F82079002800D19D
:1017D0000AE10640411E032904970396029107D2AD
:1017E0000021002E48D171E00125284605B0F0BD4A
:1017F000FC2303400194274650370022114601265E
:101800007E743A603A627A62BA62FA743D46173D73
:101810002E703D46283D2A603D462C3D2A603D46BF
:10182000303D2A603D463D3D2A703D46403D297091
:101830003D463F3D2E703D1F2A603D46083D2A60D3
:101840003D46153D2A703D46183D4C1C2C703C46CB
:10185000383466708D1C3D74CD1C3826BD55BA6475
:10186000FA643A65E270091DA0379942C7D1019C1C
:10187000049F039E002E29D028252A464A43A718F4
:1018800000223A627A62BA62FA74397401237B7474
:10189000049F012E1AD04F1C01932B467B43E31863
:1018A0001A625A629A62DA741F74049F0095019D4D
:1018B0005D74009D022E09D0891C4D4363191A6284
:1018C0005A629A62DA74197401995974002800D125
:1018D0008AE00299032904D235460021002D58D10F
:1018E00082E00F21490126466218FC2108400023AE
:1018F00019461446673C23701446783C236014460E
:101900007C3C23601446803C236014468D3C23704D
:101910001446903C217014468F3C237014463F3C83
:1019200023701446503C23601446543C23601446F4
:10193000583C23601446653C23701446683C4D1C9B
:1019400025701446173C23701446283C2360144627
:101950002C3C23601446303C236014463D3C2370ED
:101960001446403C8D1C25701360141F23601446E0
:10197000083C23601446153C23701446183CCD1CCB
:101980002570091DA0328142B3D13446039D002D3C
:101990002AD0282002464A43A21815231B01D154FD
:1019A0002646D418002222616261A261E270627050
:1019B0003446012D18D04C1C054665437519EC546E
:1019C000EC1822616261A261E27062703446039D8C
:1019D000022D09D0891C48432018C154C018026147
:1019E00042618261C270427007CC0C3C01F044FF3E
:1019F0000025257301207870A07A012800D0F4E634
:101A00002046FFF715F9284605B0F0BDA65200089C
:101A100010B582B000680D49884201D002B010BDF7
:101A20000120C0050A490A6802430A6009680140AA
:101A3000019101981F24002120460A46FFF7D0F8A3
:101A40002046FFF7BBF802B010BDC046005C004066
:101A50001C100240B0B504464079022801D0FEF7C0
:101A6000D3FE5B20C5006059012101F0B1FA605935
:101A700001F06CFAB0BD000010B50446407A0028B1
:101A800006D02B48016806229143016000F074FDE6
:101A90005B20C000205801F083FA10BD80B55B21A7
:101AA000C900405801F086FA80BD10B52922120104
:101AB000835C012B01D1022010BD84180173012227
:101AC0002270006802F045FC0020207010BD80B537
:101AD0005B21C90042585321C9004118104601F04A
:101AE0008BFA80BDB0B5044629200001215C012994
:101AF00001D10220B0BD251801202870206802F015
:101B0000C9FB206801F0B0FE00202870B0BD0000C5
:101B100010B504465B20C000205801F0C5FA607A79
:101B2000002804D00248016806220A43026010BD62
:101B300010ED00E0F0B585B0044600686E498842BB
:101B400004D36E486C2102F081FC2068C0036C4F06
:101B50005AD5012560680821C841042803D3674885
:101B6000722102F073FC039529073A1F10680840A0
:101B7000029006D110680843106010680840049075
:101B80000498009201915F4E3068C00513D4039809
:101B90000702306838433060FEF7B8FF054630680A
:101BA000384208D1FEF7B2FF401B6428F7D903255D
:101BB000284605B0F0BD03252802514909680140B7
:101BC00013D06268024091420FD0039800044C4B3E
:101BD00019681A6802431A601A6882431A60084634
:101BE000494A10401860C80777D1454F38684649C0
:101BF00008406168014339600298002804D1009AC6
:101C000010680199884310602068C10709D18107D5
:101C100017D4810629D4810339D400254005C7D5BE
:101C200049E0A068042804D33448B92102F00EFC2E
:101C3000A068396903229143014339612068810713
:101C4000E7D5E06810210246CA41042A04D32B4894
:101C5000C52102F0FBFBE068032109043A698A43CD
:101C600002433A6120688106D5D5206910250146D6
:101C70002943102904D02148DD2102F0E7FB206927
:101C80003969A9430143396120688103C5D5A06939
:101C9000802501462943802904D01848E82102F014
:101CA000D5FBA0693969A943014339612068002542
:101CB000400500D47CE76069402601463143402955
:101CC00004D00E48F72102F0C1FB60693969B143C5
:101CD00001433961284605B0F0BDFEF717FF0646FF
:101CE000814F07480068800700D57EE7FEF70EFFAA
:101CF000801BB842F5D95BE7240403002853000891
:101D00002010024000700040FFFCFFFFF0B583B0E0
:101D1000002868D00F460446C5208600207840077A
:101D200065D0022F03D3711C6C4802F08FFB6C4A04
:101D30001068012528400297B84209D2106801278F
:101D4000B8430299084310601068384088424BD16C
:101D500020688107634B019615D5400704D50720FD
:101D60000002196801431960A06804220146D141AC
:101D70000A46083A082A00D391E01968F0229143F4
:101D8000014319602068C00738D1554A10680127FF
:101D900038400299884205D91068B843106010682D
:101DA000C00721D12078400715D5E06808220146F8
:101DB000D1410A1F042A08D3002906D001996E31A7
:101DC000464802F043FB474BE068072109021A68C6
:101DD0008A4302431A601A681007810F4348022998
:101DE00022D204466BE00127384603B0F0BD3B48E1
:101DF000314602F02BFB022F95D298E76068042849
:101E0000019905D32731354802F020FB354B606836
:101E100003280DD0191F02280FD0012812D10968FC
:101E200089032F46E0D511E0032926D1304C46E046
:101E3000196B89032F46D7D508E0096889012F4619
:101E4000D2D503E0096889072F46CDD51968032745
:101E5000B94301431960FEF759FE0546224E214B56
:101E600018680C2101406068800081428DD0FEF727
:101E70004DFE401BB042F2D9B6E70321CB0319490E
:101E8000896A0F240C401B49095D94021A40240FF3
:101E9000194D2C5D9A420DD03B049A420BE000296B
:101EA00000D16AE7314620310C4802F0CFFA0D4BE1
:101EB000A06862E70E48FEF766F94443094B1868CC
:101EC0000006000F0D49085CC4400D480460032063
:101ED000FEF73AFE0027384603B0F0BDE75200088F
:101EE00000200240041002408813000000127A0013
:101EF000006CDC02F6510008E6510008D6510008DB
:101F000024000020F0B587B000283AD004460068CD
:101F10000121049109020591002808D03F210140C8
:101F200005D105993731E84802F090FA2068C007DA
:101F3000E64F18D06068052804D804998140232012
:101F4000014204D105993D31DF4802F07FFA7968FA
:101F50000C200140042917D13868800303D560683C
:101F6000002800D10FE22078800756D5E0680228CB
:101F700025D2206920282AD278680007800F2FD127
:101F80003DE0012007B0F0BD79680140082907D184
:101F90000320C00379680140049800048142DBD02B
:101FA000606804994E04002800D154E1052800D14E
:101FB00068E1012800D06EE10498010468E1059908
:101FC0007131C14802F042FA20692028D4D3059922
:101FD0007231BD4802F03AFA78680007800F0ED0DF
:101FE00078680C210140082900D0A0E00320C0033C
:101FF000796801400120C003814200D097E0386831
:10200000800703D5E068012800D0BCE13868F821DA
:1020100088432169C900014339602078000735D41D
:10202000207840074FD48920800005902078C00692
:1020300000D469E16069401D062800D948E101210A
:1020400081406120014200D142E1A069202800D3F3
:1020500046E16069411D00D14BE1012800D0AEE0AE
:10206000786B042101437963786B01210143796323
:10207000FEF74CFD0646786B800700D53DE1FEF784
:1020800045FD811B03200229F5D91CE2E1690229E3
:1020900005D30599B2318C4802F0D8F9E169786A24
:1020A000002969D0012108437862FEF72FFD05461B
:1020B000786A8007B4D4FEF729FD401B0228F7D9BF
:1020C000032007B0F0BDA068052804D80121814095
:1020D0002320014204D10599DE31FC4802F0B6F913
:1020E000012003900107F8690840029006D1F869C1
:1020F0000843F861F8690840069006980191F44E8B
:1021000030680599084228D1306805990843306045
:10211000FEF7FCFC05463068059908421DD1FEF724
:10212000F5FC401B6428F6D9032007B0F0BD3868E1
:10213000E168002932D0012108433860FEF7E6FC4F
:1021400005463868800700D560E7FEF7DFFC401BD6
:102150000228F6D9032007B0F0BDA068002844D0BB
:10216000052858D001285AD0386A03998843386224
:10217000386A0421884355E0012188437862FEF7DC
:10218000C5FC0546786A800700D449E7FEF7BEFC27
:10219000401B0228F6D9032007B0F0BD0121884377
:1021A0003860FEF7B3FC05463868800700D434E792
:1021B000FEF7ACFC411B03200229F5D983E1786BC3
:1021C000042101437963786B012188437863FEF72A
:1021D0009DFC0646786B800700D495E0FEF796FCE0
:1021E000811B03200229F5D96DE1386A03998843E0
:1021F0003862386A042188433862B64EFEF786FC9E
:102200000546386A80071DD5FEF780FC411B032078
:10221000B142F6D957E1386A042101433962386A7C
:10222000039908433862AB4EFEF770FC0546386AE6
:10223000800707D4FEF76AFC401BB042F7D90320A1
:1022400007B0F0BD0298002800D0ECE6F8690199CB
:102250008843F861E7E6049A1004396881433960DD
:102260009004396881433960FEF750FC05463868B0
:10227000304200D177E6FEF749FC411B0320642978
:10228000F5D920E1049A90043968014339601104BA
:102290003868084307E0049A1004396881433960BC
:1022A0009104386888433860FEF730FC054638688A
:1022B000304200D057E6FEF729FC401B6428F6D9CF
:1022C000032007B0F0BDC046E752000800100240EE
:1022D0007E48059902F0BAF8A069202800D2B8E635
:1022E0000598411C794802F0B1F86069411D00D0A1
:1022F000B3E6786B042188437863786BF8218843D0
:10230000A169C900014379632078800612D5206A4B
:10231000022804D305993E316C4802F097F8796899
:102320000C2001400C296AD1786B800302D5206A09
:10233000012828D1606A032805D3059974316348C0
:1023400002F084F8606A00281AD079680C220A40EA
:10235000082A1BD1012816D00320C2037868024046
:10236000F96AA36A9A420ED10F221140236B994257
:1023700009D191040840E16A8842049800D0A2E0A3
:10238000002007B0F0BD049807B0F0BD01256E062F
:102390005149022853D1A06AE90388420BD029048D
:1023A000884208D00321C903884204D005997D31B1
:1023B000464802F04BF8E06A1221C8410F2804D3C6
:1023C00005997E31414802F041F80495206B1028B0
:1023D00004D305997F313D4802F038F838683E490A
:1023E00008403860FEF792FB05463868304249D015
:1023F000FEF78CFB411B03200229F6D963E07968C4
:102400000140082905D10320C003796801408142B9
:102410008AD0786B216A002921D001210A04104357
:1024200078634D04FEF772FB0646786B284281D133
:10243000FEF76CFB811B03200229F6D943E03868C4
:1024400008403860FEF762FB04463868304297D097
:10245000FEF75CFB011B03200229F6D933E00121C2
:102460000A04904378634D04FEF750FB0646786BF0
:10247000284200D15EE7FEF749FB811B03200229B9
:10248000F5D920E0F86A0F218843216B0143F962F6
:102490007B20C00379688143E06A0843A16A014355
:1024A000796004980006396801433960FEF72EFB15
:1024B00004463868304200D062E7FEF727FB011B74
:1024C00003200229F5D907B0F0BDC046E752000845
:1024D0000070004088130000FFFFFFFE401E010E49
:1024E00001D0012070470749074A50600748036838
:1024F0000B400321890759180160002090600721D3
:1025000011607047FFFFFF0010E000E020ED00E0E9
:10251000FEE7000080B510481049002200F0B3FB30
:10252000002801D0FEF770F90B480D4900F0ECFDD2
:10253000002801D0FEF768F907480A4900F075F94C
:10254000002801D0FEF760F9034800F0F4FD0028F0
:1025500001D0FEF759F980BDD00900200800002005
:10256000280000204C010020FEE77047704780B52E
:10257000FEF7D0FA80BD0000B0B598B00BAC201DBE
:102580003021FDF7DFFD012013900E9022200B90EB
:102590000025149510200F9005950495039502953C
:1025A00001952046FFF7AEFC002801D072B6FEE789
:1025B0000A950995032008900720079007A8012194
:1025C000FFF7A4FB002801D072B6FEE7069504953C
:1025D0000295054800906846FFF7ACFA002801D044
:1025E00072B6FEE718B0B0BD2100020011480268C3
:1025F00001210A43026042680F4B134043600268A6
:102600000E4B134003608A040368934303603F2228
:102610001204436893434360C26A0F239A43C26221
:10262000026B074B13400363426B8A4342630021F2
:1026300081607047001002400CB8FF08FFFFF6FEF3
:102640002CFEFCFFF0B581B00C4605465720C100BA
:102650006F58002F16D0142060432E18F069002800
:1026600009D069188968282262438918096AFDF728
:102670008AFD00290AD08520800000263E50304681
:1026800001B0F0BD0226304601B0F0BD1C36304628
:1026900000260660284621463246334600F00EFDED
:1026A000304601B0F0BD70B505465720C600A859A8
:1026B000812292008418284600F0C7FBA060A85928
:1026C000002808D0A919206808344968CA6821463A
:1026D0009047002070BD022070BDB0B50446812136
:1026E00000F0F8FA0025E5620121204600F0F2FA38
:1026F0005B20800025508221204600F0EBFA256403
:102700005720C0002158002907D02418606840686D
:102710008047206800F032FF25600020B0BD10B572
:102720005721C90042185368002B0BD04158012093
:1027300040020C182078FF2804D062789B689847E4
:10274000FF202070002010BD0A2101800048704742
:10275000E80000204321018000487047600000200D
:102760004321018000487047A400002043210180DC
:1027700000487047F4000020F0B583B00446007CA8
:10278000012675020028029500D0402581210227EC
:10279000204601913A462B4600F0B4FBE662204603
:1027A00031463A462B4600F0ADFB5B2080002650B8
:1027B000822103220823204600F0A4FB2664872000
:1027C000800000F0DDFE5721C9006050002813D0C2
:1027D0006118019A920085184868006880470026B1
:1027E0002E616E61207C0028029B00D040232A6865
:1027F0000121204600F09AFB304603B0F0BD10B531
:102800005721C9004258002A05D0037C0121002B22
:1028100003D0402302E0022010BD4B028124A4001B
:10282000125900F083FB002010BD002904D0AF2214
:102830009200815000207047022070475722D2003A
:102840008058812292008150002070475723DB007E
:10285000C0584123DB00C150C0188260002070477F
:10286000F0B583B00E460546A72080002918CF6931
:1028700002A80024047001A804803057602202409E
:1028800011D0202A37D1F288002A19D000283AD452
:10289000012040023818427071780170284639468C
:1028A00000F07DF819E070780B2813D00A2817D0B3
:1028B000002820D1087803281DD101A9022214E0A4
:1028C0007078096A8B680024314622469847204672
:1028D00003B0F0BD087803280DD1204603B0F0BD49
:1028E0000878032807D102A90122284600F076F8CB
:1028F000204603B0F0BD2846314600F046F80224D9
:10290000204603B0F0BD7078096A8B683946984755
:10291000F2882846394600F061F8204603B0F0BD41
:1029200080B55721C9004158002907D04122D20063
:102930008918CA68002A03D0012080BD022080BD0A
:102940000122CA608B6803630A689BB2812100F090
:10295000B5FB002080BD80B5AD2292008258526840
:102960009047002080BD10B513460A46002421463A
:1029700000F0DCFA204610BD10B513460A460024CC
:10298000214600F09BFB204610BD10B50446802177
:1029900000F068FB0021204600F064FB10BDB0B5DC
:1029A00013460A46572189004350A524A400032555
:1029B000055141184B600024214600F0B7FA20462B
:1029C000B0BD10B5A5218900052242500024214642
:1029D0002246234600F0AAFA204610BD10B5134641
:1029E0000A46A521890002244450C36103620024E1
:1029F000214600F063FB204610BD10B5A5218900DB
:102A000004224250002421462246234600F056FB71
:102A1000204610BD10B50A4603A02A4C214600F0FE
:102A2000DBF8204610BDC04643444320436F6E662A
:102A300069670000122008800048704738010020B4
:102A400010B50A4603A01F4C214600F0C5F82046E9
:102A500010BDC04643444320496E7465726661638D
:102A60006500000004200880004870475C010020D9
:102A700010B50A4603A0134C214600F0ADF82046DD
:102A800010BDC04653544D6963726F656C656374C5
:102A9000726F6E696373000010B50A4603A0094C9B
:102AA000214600F099F8204610BDC04653544D33DE
:102AB00032205669727475616C20436F6D506F726D
:102AC00074000000B001002010B51A2008804048B2
:102AD00001688268521879D041683E4800234376E5
:102AE000C3754375C3744374C3734373C372437232
:102AF000C3714371C3700F2313401407640F052C77
:102B000001D3373300E030330374540F130F052C17
:102B100001D3373300E0303383704C0F0B0F052C9B
:102B200001D3373300E03033837413065C0F1B0F7F
:102B3000052C01D3373300E03033837313055C0F6A
:102B40001B0F052C01D3373300E03033037313041C
:102B50005C0F1B0F052C01D3373300E03033837239
:102B600013035C0F1B0F052C01D3373300E0303308
:102B7000037213025C0F1B0F052C01D3373300E0E7
:102B8000303383711201530F120F052B01D33732EB
:102B900000E0303202710A03530F120F052B01D3EC
:102BA000373200E0303202760A02530F120F052B43
:102BB00001D3373200E03032827509014A0F090F24
:102BC000052A01D3373100E030310175014810BDCD
:102BD000ACF7FF1F6001002070B5002852D00378C9
:102BE000002B14D0041D0023E51E2D78002D10D0DD
:102BF000A51E2D78002D0ED0651E2D78002D0CD031
:102C0000251D1B1D2478002C2C46EDD107E0002348
:102C100005E0012402E0022400E003242343DBB2A8
:102C20005B009B1C138003224A700B700378002BFF
:102C300028D0021D0220C5B24B5501231D4300249C
:102C40004C55D51E2D78002D1CD0861CF6B28D5506
:102C50001E438C55951E2D78002D13D0061DF6B2FF
:102C60008D551E438C55551E2D78002D0AD0861D7E
:102C7000F6B28D553343CC54141D08301378002B15
:102C80002246D8D170BD10B5002811D0A7239B00D3
:102C9000C3189C69002C01D000249C61002900D03D
:102CA000596102700121197000F0D6F8002010BDA2
:102CB000022010BD80B50B2292018058FEF728F843
:102CC000042802D30220C0B280BDC100F548C8402C
:102CD000C0B280BD80B50B2292018058FDF7F2FF93
:102CE000042802D30220C0B280BDC100ED48C84014
:102CF000C0B280BDF0B581B00446A5208000271881
:102D000000290CD0386A42690220002A05D03B7A9B
:102D1000032B02D120469047002001B0F0BD386857
:102D2000002816D0042814D0022816D1206A666A1A
:102D3000B0421CD9801B206283B2204611461A463D
:102D4000FFF71AFE002120460A460B4600F0EEF877
:102D500003E08021204600F085F9387B012803D16B
:102D60000020387301B0F0BD002001B0F0BDE5696E
:102D700028463146FDF707FAB54212D3002910D193
:102D8000786885420DD20025204629462A46FFF75D
:102D9000F3FD7D60204629462A462B4600F0C6F802
:102DA000DBE7386AC168002904D0387A032801D1EA
:102DB000204688478021204600F054F92046FFF73E
:102DC00000FECAE770B50546A52080002818002936
:102DD0000CD0026A92690224002A05D0007A0328E6
:102DE00002D1284690470024204670BD0168002487
:102DF000052915D00329F7D10B2149016B181E684D
:102E000059688E4213D9701A1860884200D3084658
:102E100083B2284611461A46FFF7A5FD204670BD2D
:102E200004602846214600F01DF9204670BD016A65
:102E30000969002904D0007A032801D1284688476F
:102E40002846FFF7DAFD204670BD80B50B229201BF
:102E50008058FDF78CFF80BD70B50B218A011D499C
:102E600081505B23DB00C85000234B814B7202234F
:102E7000CB71194B0B604123DB008B808618084611
:102E8000FEF786FC002801D0FDF7BEFC3068002468
:102E9000182321462246FDF7DFFE306880215823A3
:102EA0002246FDF7D9FE30688121C0232246FDF776
:102EB000D3FE306801210D022B4610332246FDF768
:102EC000CBFE3068822122462B46FDF7C5FE204608
:102ED00070BDC046940C0020005C00407F220A4078
:102EE000282353430B2292018058C01849B200296D
:102EF00004D4A921490040180078704712300078A6
:102F00007047000010B514460B22920180581A46F3
:102F10002346FDF735FF042802D30220C0B210BDBE
:102F2000C1006E48C840C0B210BDC04610B50B24E9
:102F3000A4010059FDF750FF042802D30220C0B2BB
:102F400010BDC1006548C840C0B210BDF0B581B029
:102F500004460025402629462A463346FFF7D2FF7D
:102F60002B20C000012727502018C6608021204652
:102F70002A463346FFF7C6FFA520800025502018BB
:102F800007726662A76105616560416A002904D025
:102F9000006A4268002120469047002001B0F0BD41
:102FA000A7218900425C042A02D1401841780170AF
:102FB0000020704780B5A7218900425C032A05D113
:102FC00041188969C969002900D08847002080BD5F
:102FD000017400207047000080B50B2292018058D8
:102FE000FEF763FD042802D30220C0B280BDC100F9
:102FF0003A48C840C0B280BDF0B581B00446A520B3
:103000008600A7193D461435284600F069F80120CE
:10301000A051788B7860397D1F20084002280AD0A3
:1030200001280FD0002814D12046294600F088F846
:10303000002001B0F0BD2046294600F0BDF9002077
:1030400001B0F0BD2046294600F05FFA002001B033
:10305000F0BD80200140204600F004F8002001B0BF
:10306000F0BD000080B50B2292018058FDF7C8FE2C
:10307000042802D30220C0B280BDC1001748C84056
:10308000C0B280BD80B50B2189014058FEF72AFDF2
:10309000042802D30220C0B280BDC1000F48C8403E
:1030A000C0B280BD00020102A7218900425C042356
:1030B00043544018427000207047000010B50B24A4
:1030C000A4010059FDF7C8FE042802D30220C0B2B3
:1030D00010BDC1000148C840C0B210BD00020102CD
:1030E0000A7802704A7842708A78CB781B029A1864
:1030F00042800A794B791B029A1882808A79C979B1
:1031000009028918C1807047002904D0AD229200BD
:103110008150002070470220704780B5AD22920098
:103120008258002A05D012689047411E884140000D
:1031300080BD022080BD80B5FFF7A4FF002080BDC8
:1031400070B582B00D460446097860200840A7217A
:103150008900661800280CD0402802D0202800D012
:1031600074E0B0698268204629469047002002B08A
:1031700070BD6878092800D968E0C04678440079B5
:10318000400087440411631A63203D63515D307829
:10319000401E02285AD8E888022857D1B068002873
:1031A00000D1B9E00320B8E03078401E02284DD8A5
:1031B00068880128DAD1002003E068880128D5D189
:1031C0000120B060EAE0A88800283FD1E888002804
:1031D0003CD168887F2839D83178032936D0B0703F
:1031E000C5B220462946FFF7F7FE2046FFF705FC4B
:1031F000002D00D1D8E002203070002002B070BD58
:1032000001A8002101806888010A491E06291DD8ED
:103210007944097949008F44033A4019194D550002
:10322000207C71690A68A3E0E88801280ED1307813
:10323000411E022926D20020A0602146083124E048
:1032400068885C4D2870C1B202290AD380212046CB
:10325000FFF708FF00212046FFF704FF002002B01F
:1032600070BD3078032837D0022846D1002900D11C
:1032700094E00320307061602046FFF74EFF022883
:10328000E4D08BE00328E1D1211D012249E0B0699F
:10329000217C00294BD0C16A4AE0C0B20528D5D8AC
:1032A0007844007940008744025154575A5D706950
:1032B000426859E0207C0028C8D1B069416B01A860
:1032C000884757E0207C0028C0D1B069016B01A875
:1032D0008847014607202FE000292FD06068012889
:1032E0005CD0C1B22046FFF736FB297861602046EA
:1032F000FFF713FF022851D1A8E780212046FFF7EE
:10330000B1FE00212046FFF7ADFE29782046FFF7E9
:1033100022FB002002B070BD0120E06021460C318C
:1033200002222046FFF75AFB002002B070BD816ADE
:1033300001A888470146022048701CE00020606018
:10334000022030702046FFF706FB27E07069826894
:103350000AE07069C26807E07069026904E0706998
:10336000426901E070698269002A00D16EE7207C21
:1033700001A99047014601A80288002A0AD0E888DE
:10338000002807D0824200D3024601A802802046CE
:10339000FFF724FBE888002800D0E7E62046FFF787
:1033A0002CFB002002B070BD01203070002002B064
:1033B00070BDC046AE010020B0B50A46044609788B
:1033C00060200840A7218900631800280AD04028FF
:1033D00001D0202816D19869836820461146984765
:1033E0000020B0BD11795078002815D0012821D0D7
:1033F00003284CD1187803282CD0022847D148063E
:103400001FD144E080212046FFF72CFE00212046FA
:10341000FFF728FE0020B0BD552080001A78032A4F
:1034200029D0022A33D14A0631D1090664D5214672
:10343000143162E01878032833D0022827D14806D7
:1034400025D02046FFF70EFE80212046FFF70AFE1A
:103450000020B0BD5088002808D17F20084005D04A
:10346000D088002802D12046FFF7FCFD2046FFF758
:10347000C4FA0020B0BD0F220A4014235343E218BF
:1034800080291BD22B23DB00D258002A19D180219E
:103490002046FFF7E7FD00212046FFF7E3FD00206F
:1034A000B0BD50880028B5D1480602D02046FFF7AD
:1034B00001FC2046FFF7A1FA0020B0BD9269002A66
:1034C000E5D07F220A4014235343E518802901D315
:1034D000143500E02D18480605D02046FFF7FEFC05
:1034E000411E884100E00020286002222046294633
:1034F000FFF774FA0020B0BD2118002008600222F6
:103500002046FFF76BFA0020B0BDB0B50D4604466B
:1035100009786020084003D0402801D0202814D129
:10352000A720800020180178491E022903D8A98805
:103530000906490E13D080212046FFF793FD002194
:103540002046FFF78FFD0020B0BD80212046FFF709
:1035500089FD00212046FFF785FD0020B0BD806970
:103560008268204629469047E9880029F5D100283D
:10357000F3D12046FFF741FA0020B0BD70470000AC
:1035800000487047B0030020F0B584B002460E78C2
:10359000B0001318145A80482040CC78032C0394B0
:1035A00008D800277C4424796400A74401050B084F
:1035B000012405E0012705E0784C641C01E00324A8
:1035C00064022043764C204318801888CB4D284055
:1035D000304320431880087B724D0028029705D0A5
:1035E00003983746022827D0284626E05020105A54
:1035F0000190CC880127BC43F00000964E78002E45
:103600007AD0101801994018B9024452188840061F
:10361000BA4A05D51888104029464031014319801F
:1036200030321888104003990129029E7FD1284327
:103630001880304604B0F0BD5B481C885B4E2640C5
:1036400006431E805020145AFE0096190127BD0221
:103650007519FE430F8937402F53105A28184A898D
:1036600032408280B64A1446F134188820404978A6
:1036700000291CD00028029EA04D04D018882840A4
:1036800078490143198018884006464C05D51888AA
:1036900028402146403101431980303518882840A0
:1036A000039901291FD02146203148401CE0002801
:1036B000029E924D04D0188828406A49014319801F
:1036C00018884006374C05D51888284021464031D7
:1036D0000143198018881040354941401980303520
:1036E0001888284003E020431880188810402043A1
:1036F0001880304604B0F0BD1646503610180397B7
:10370000BF02C019019D4719BC80851D3788E85B41
:10371000224C0440EC53096900290ED03E2912D8EE
:10372000785B039C0C40490809198C0208E020359D
:1037300068401880304604B0F0BD785B194C803C7E
:1037400004436E4E0BE0CC064809002C6B4E00D1B2
:10375000401E8002795B0143124C803C0C437C5339
:10376000198877480446F134214204D01988314041
:103770003C4C0C431C8000990029029E03D0198800
:1037800001400C4802E01188014009484840188077
:10379000304604B0F0BDC0468F89FFFFFF03000034
:1037A0008080FFFF808000008081FFFF0F0E0000FF
:1037B00080B0FFFF80A0FFFFF0B50A789200875A23
:1037C00080184A780B7B2649002B28D05C4E334664
:1037D000F1331F40494B002A2AD04B4D002F03D014
:1037E00002881A402A4302801C463034028852065E
:1037F000324603D506881E400E43068006881E40CA
:103800002E4306800B46403B058825401D4305801E
:10381000038813404039194301800020F0BD002A7D
:1038200015D0364C224630327B060B46F0D5EBE7FE
:10383000002F04D002881A400A4C144304801A4610
:103840003032048864060D463446D3D4D6E73C4A69
:103850001346F1331F42DBD0284C2B4BD4E7C04634
:10386000C080000080C0FFFF5821425A0123DB03C3
:10387000134343520020704740220121815200210E
:103880008152403081800182084670474021425A6F
:10389000024B1340435200207047C0467F40000057
:1038A000B0B50A7B002A01D00020B0BD0A78920092
:1038B000845A80184A78002A0ED062060F4A104BAC
:1038C00005D5048814401D46203525430580C97858
:1038D0000129E9D030320BE0194A1146F131094B88
:1038E0000C4205D00188054C0C4007496118018045
:1038F00001881140594001800020B0BD0F0F000029
:10390000A080000080B0000080C0000010B54B789F
:10391000002B04D0094A002B04D1094B03E0064ACE
:10392000002BFAD0074B09788900445A1C405440B8
:103930004452002010BDC0468090FFFF9080FFFFE2
:103940000F3F00003F0F0000F0B58AB007464A78ED
:10395000012A56D18B690C69A34200D323460A7B06
:10396000002A7FD00E6AC878022800D0C1E00793F1
:103970000D78A8003B18385AFD4A024068000890AC
:10398000A64200D805E10694FC4802431A80079C31
:10399000301B0590086218885022BA5AED003B4649
:1039A0005033400609970493039500D5A3E1781995
:1039B000801801229202029280184480A2B24869C3
:1039C0000190002A234600D158E30998029C00196F
:1039D0000D894519501C460803273740701E002FDB
:1039E00000D190E20090019C2078627812021018B9
:1039F0002880012F00D08AE2A71CAD1C0098064643
:103A000021E3087B002853D0CB78012B00D1A5E01F
:103A1000022B00D0ACE0002A00D047E25020385AF8
:103A20003818012207929202089280183C46871C9F
:103A30000878C200B85ADF4B1840B8520D69099493
:103A40005034DD4E002D00D1D4E13E2D00D9D5E11A
:103A5000D05B06902B46079803406808C018830285
:103A60000698D5E1012290021C04089000D135E1AE
:103A700009973C18CD8864199DB26D1C6E08032708
:103A800037404D69701E002F00D10BE10790287858
:103A90006A78120210182080012F00D055E1AD1C69
:103AA000A41C07980646099F032800D3FDE015E1F2
:103AB0005020385A099738180124A2028018821D14
:103AC0000878C300D05ABB4D0540D5520E698D69A8
:103AD000AF1B50D38F61B54251D2002D099F52D0F8
:103AE0003E2D00D9A6E0985A2C406D082C19A4024E
:103AF0004CE0F01A086208788200BC5A5022BA5A88
:103B000065069EB2C4004000089038198018012252
:103B100092028018002D6BD44380A84BA64C002E37
:103B200000D11DE10997B8180A898518701C46084C
:103B3000032737404969701E002F00D116E1079016
:103B400008784A78120210182880012F00D024E14A
:103B5000891CAD1C07980646099FFAE10C698B6920
:103B60001D1B74D38D61A34275D2002A77D0BEE1AC
:103B700001200AB0F0BD00278F61B542ADD33546B4
:103B8000002D099FACD1985A8D4CB03C04439C52F7
:103B9000ADE18B48303802431A80E80038185022D3
:103BA000BA5A801801229202801846803004834B52
:103BB000814C00D1D6E00997B8180A898518B0B2AF
:103BC000401C4608032737404969701E002F00D16A
:103BD000D0E0079008784A78120210182880012F48
:103BE00000D0EFE0891CAD1C07980646099FD9E17B
:103BF000C380724B704C002E00D1B5E00997B81805
:103C00004A898518701C4608032737404969701E89
:103C1000002F00D1B0E0079008784A7812021018FF
:103C20002880012F00D0D9E0891CAD1C07980646DA
:103C3000099FE0E1E8066C09002800D1641EA0029B
:103C40009C5A04435E48B038204398524FE1002507
:103C50008D61A34289D32346002A00D047E150203A
:103C6000385A3818012207929202089280183D466D
:103C7000871C0878C200B85A4E4C2040B8520995AB
:103C800050354D4E002B00D1B6E03E2B00D9DBE085
:103C9000D05B06901C46079804405808001984021F
:103CA0000698DBE0099F032818D328786A78120267
:103CB00010182080A878EA781202101860802879FD
:103CC0006A7912021018A080A879EA7912021018F5
:103CD000E0800834361F0835002EE6D15020385ACF
:103CE000089AD21910180978CA0080184380480031
:103CF000324B314CFFE07819801801229202029277
:103D00008018C480A2B248690190002A234600D1DD
:103D10001DE20998029C00194D894519501C46085E
:103D200003273740701E002F00D1EEE00090019C69
:103D300020786278120210182880012F00D0F2E05B
:103D4000A71CAD1C00980646E6E1A878EA781202A6
:103D500010186080022F13D1B61E2D1D241D17E0F0
:103D60000898C8E00898C6E00898C4E0099FF0E009
:103D70000F0E0000099F15E1099F3CE180810000C2
:103D800028796A7912021018A080F61EAD1DA41DB4
:103D9000099F0798032888D2A0E78878CA7812027A
:103DA00010186880022F00D0C9E0B61E091D2D1D15
:103DB000CDE0C046FF030000B08000003F0F0000D0
:103DC000B080FFFF8878CA78120210186880022F2E
:103DD00000D0DDE0B61E091D2D1DE1E08878CA780F
:103DE000120210186880022F00D0FAE0B61E091DDA
:103DF0002D1DFEE0D05B09E0D05B2DE0E8066B09ED
:103E0000002800D15B1E9B02D05B18433346B03BB9
:103E100003430898D353099FC0192388C018841DF1
:103E2000A05AF34B1840A052002D09D03E2D32D895
:103E3000105B079E2E406B089B199E02064334E0E0
:103E4000105BB03E064330E0D8065C09002800D184
:103E5000641EA402D05B20433446B03C044308985F
:103E6000D453099FC0192C880019851DA85AE04C0D
:103E70002040A852002B0AD03E2B2DD8505B079C27
:103E80001C405B081B199B02034353532FE0505BFC
:103E9000B03E06432AE0E8066B09002800D15B1E0D
:103EA0009802135B0343B03E1E431653C8690028B3
:103EB0001DD008788200BB5AF1480340834201D0EC
:103EC000002B14D1B818EF4A303A03881340EE4A59
:103ED0009A18103202800AE0D8065B09002800D147
:103EE0005B1E9802535B0343B03E1E435653087853
:103EF0004000E64CE64B4000395A194061403952C7
:103F000000200AB0F0BD019F9DE0019F04E1A07870
:103F1000E278120210186880022F00D08AE0B61EE4
:103F2000271D2D1D8EE0A078E278120210186880FF
:103F3000022F00D0E7E0B61E271D2D1DEBE008790B
:103F40004A7912021018A880F61E891DAD1D099F1E
:103F50000798032801D20898CDE708784A7812021A
:103F6000101828808878CA7812021018688008799A
:103F70004A7912021018A8808879CA79120210189A
:103F8000E8800835361F0831002EE6D10898B2E7E0
:103F900008794A7912021018A880F61E891DAD1DF5
:103FA000099F0798032801D20898A4E708784A785F
:103FB0001202101828808878CA78120210186880B7
:103FC00008794A7912021018A8808879CA791202F1
:103FD0001018E8800835361F0831002EE6D1089801
:103FE00089E708794A7912021018A880F61E891DFF
:103FF000AD1D099F0798032801D208987BE7087830
:104000004A781202101828808878CA78120210188C
:10401000688008794A7912021018A8808879CA79CC
:1040200012021018E8800835361F0831002EE6D13C
:10403000089860E72079627912021018A880F61EAD
:10404000A71DAD1D0098032818D338787A7812027E
:1040500010182880B878FA78120210186880387919
:104060007A7912021018A880B879FA791202101819
:10407000E8800835361F0837002EE6D10198C618AB
:104080004E61059D0698854201D8002200E0EA1A9B
:10409000099F049C03980A62069A954200D82B4611
:1040A000029D2818C01922888018C3809AB2754BC7
:1040B000724C002A17D0781949894118501C4508BC
:1040C00003272F40681E002F0FD00790307872789A
:1040D000120210180880B61C012F08D1891C0798FD
:1040E0000546099F80E0089805E7099F7CE0307845
:1040F0007278120210184880B61C022F099F6AD1EC
:10410000AD1E091D6FE02079627912021018A88097
:10411000F61EA71DAD1D0098032818D338787A78AD
:10412000120210182880B878FA78120210186880E5
:1041300038797A7912021018A880B879FA791202BF
:104140001018E8800835361F0837002EE6D1019890
:10415000C6184E61059D0698854201D8002200E0F0
:10416000EA1A099F049C03980A62069A954200D8AD
:104170002B46029AD21910182488001943809DB248
:10418000404B3E4C002D16D008891118681C45087C
:1041900003272F40681E002F0FD0079030787278C9
:1041A000120210180880B61C012F08D1891C07982C
:1041B0000546099F42E008989DE6099F3EE0307859
:1041C0007278120210184880B61C022F099F2CD159
:1041D000AD1E091D31E03078727812021018888007
:1041E000ED1EB61C891D0798032803D2089882E6A5
:1041F000FF03000030787278120210180880B0783F
:10420000F278120210184880307972791202101870
:104210008880B079F27912021018C88008312D1FF9
:104220000836002DE6D1089865E6307872781202DB
:1042300010188880ED1EB61C891D0798032801D22E
:10424000089858E630787278120210180880B07812
:10425000F278120210184880307972791202101820
:104260008880B079F27912021018C88008312D1FA9
:104270000836002DE6D108983DE6C046B080000023
:10428000404000003F0F0000B080FFFF80B0000002
:104290000F3F000002464032002191804022024B35
:1042A000835208467047C04680BF000080B5024870
:1042B000FCF7E8FD80BDC046940C00204421405A24
:1042C000704770B58018012292028018022B31D3FA
:1042D0005A0803251540541E002D14D006880E7070
:1042E000360A4E70012D05D1891C801C2246032CF4
:1042F0000BD21FE046888E70360ACE70022D1ED17A
:10430000921E091D001D032C14D304880C70240A6E
:104310004C7044888C70240ACC7084880C71240AF8
:104320004C71C4888C71240ACC710830121F08317A
:10433000002AEAD1DA0701D00088087070BD8588AC
:104340000D712D0A4D71D21E891D801D032CDCD2EA
:10435000F0E7002901D0002070474C218022425212
:1043600000207047F0B587B0002406940127780438
:104370000F490A6802430A600968014001910198E7
:104380000920C5060320C602284631462246FCF70E
:104390009BFB0594022004900397029602A92846ED
:1043A000FCF754FA0A20FCF741FA07B0F0BDC0460A
:1043B0001410024070B5002B3CD0801801229202EC
:1043C00080185A1C520803241440531E002C16D087
:1043D0000D784E78360275190580012C05D1891C9F
:1043E000801C1A46032B25D30BE08D78CE7836023D
:1043F00075194580022C1ED1921E091D001D032B2C
:1044000018D30B784C782402E31803808B78CC788F
:104410002402E31843800B794C792402E31883804B
:104420008B79CC792402E318C3800830121F08313D
:10443000002AE6D170BD0C794D792D022C198480AB
:10444000D21E891D801D032BF4D3DAE770470000CC
:10445000F0B583B0594F3C680720400720187B68AF
:104460000125A903884211D80326204630400DD1EA
:104470001846A84359494018594988420ED8032084
:104480004F4964A200F004F903B0F0BD03204C4989
:104490004CA2234600F0FCF803B0F0BD0193FCF7FA
:1044A000B5F90020C1434F4A11604F4A11604F498E
:1044B00008604860886072B64D4801682943016011
:1044C000006828400290029868073968016079689E
:1044D0004160B9688160F968C160396901617969D1
:1044E0004161B9698161F969C161396A0162796AB9
:1044F0004162B96A8162F96AC162396B0163796BA1
:104500004163B96B8163F96BC163396C0164796C88
:104510004164B96C8164F96CC164396D0165796D70
:104520004165B96D8165F96DC165396E0166796E58
:104530004166B96E8166F96EC166396F0167796F40
:104540004167B96F8167F96FC1672A4802682A49D4
:104550000A6042684A6082688A60C268CA6002690A
:104560000A6142694A6182698A61C269CA61026AF2
:104570000A62426A4A62826A8A62C26ACA62026BDA
:104580000A63426B4A63826B8A63C06BC8631B48D1
:104590000168B1430160016831430160BFF34F8F8F
:1045A000BFF36F8F019884F308880047044C14A56B
:1045B000032021462A4600F06BF8F9E700A0000826
:1045C0007B530008415050204D5350204552524FCC
:1045D00052203D203078253038580000FFBFFEF7CC
:1045E000FE5FFFFF80E100E080E200E010E000E01D
:1045F0001810024080A00008800000200000014048
:104600006A756D705F746F5F617070206572726F34
:1046100072000000415050205245534554204144FF
:104620004452204552524F52203D20307825303898
:104630005800000080B582B0064A51701070009199
:10464000800005490B580320044905A200F020F81A
:1046500002B080BD700F002008520008D953000836
:104660004C6F6767657220696E697469616C697AFD
:1046700065642C206C6576656C3A2025732C206F60
:1046800075747075743A2030782530325800000007
:1046900081B0F0B584B015460993224C2278431EB0
:1046A000DBB2934239D209AF0397009180001E49D3
:1046B0000B58A01C01210E021C4A0290314600F04A
:1046C000CFF8FF2829D822460446311A1018801C3A
:1046D0002A463B4600F0E0F8124A00281DD4001993
:1046E000FD2806D810180A21C1700D218170001D07
:1046F00006E0FF200D2111540A21915502301018B7
:10470000002101705078C00707D0029C2046FBF7BB
:1047100024FD81B22046FCF741F804B0F0BC01BC96
:1047200001B00047700F002008520008AC53000889
:104730009AB0FCF7F9F90DAC201D3021FBF702FD12
:1047400001201590109022200D9000271697102020
:104750001190079706970597049703972046FDF752
:10476000D1FB002801D072B6FEE70C970B9703200F
:104770000A900720099009A80121FDF7C7FA00282F
:1047800001D072B6FEE70897069704972848029072
:1047900002A8FDF7CFF9002801D072B6FEE7FFF7B7
:1047A000E1FDFDF7B7FE032601213046FFF742FF8A
:1047B000204D214A30462946FFF76AFF1F4E0197D8
:1047C0000CE003460327384629461E4AFFF760FFE0
:1047D000384629461CA2FFF75BFF019F1420FCF717
:1047E00025F803202946144AFFF752FFB08D002810
:1047F000F4D0B7853146163116223046FBF789FCD6
:10480000102230460E49FBF7AFFC0028D9D1032710
:104810000023384629460B4AFFF73AFF3846294617
:10482000074AFFF735FFFFF713FE019FD6E7C046A3
:10483000210002007B530008805300088001002003
:104840009B5300086C530008737461727420626F8C
:104850006F746C6F61646572206572726F720000B4
:104860000FB47CB50C0009AD01D0611E00E0002141
:1048700001910090074B6A462946089800F004F918
:10488000002C02D0009A002111707CBC08BC04B03E
:1048900018470000C15100087CB51D4616460C00A3
:1048A00001D0611E00E0002101910090054B6A4695
:1048B0002946304600F0E8F8002C02D0009A00218A
:1048C00011707CBDC15100082021020C01D01021C3
:1048D0001046020A01D010460839020901D01046DC
:1048E000091F820801D01046891E420801D0881E87
:1048F0007047081A704702E008C8121F08C1002A52
:10490000FAD170477047002001E001C1121F002A50
:10491000FBD17047F0B51FB486B00998089A030D13
:104920000021024314D05148514A1818504305142D
:104930001198012810981AD0281A401C00264D4FB3
:104940004D49009601910490002812DA444211E08A
:104950001198012449A3012801D11098C143069858
:10496000119A84600360C26041600BB0F0BD4042A8
:10497000E4E70446210500203F4A001C5141039111
:10498000029012E0E00707D032463B4601990098BA
:10499000FBF7FAFC0191009032463B46104619465F
:1049A000FBF7F2FC06460F466410002CEAD104988F
:1049B000039B0028029A0999089806DAFBF7E4FCA1
:1049C000019B009AFBF7E0FC05E0FBF745FD019B2E
:1049D000009AFBF741FD04460E460022284BFBF7E8
:1049E000D3FD03D80020C043014607E00022254B39
:1049F00020463146FBF716FCFBF7A6FD102409E024
:104A0000002C0ADB0A220023FBF7DCFB079B303279
:104A10001A55641E02460A43F2D11122641C079BF8
:104A2000121B1C19119B012B03D0012308430ED12B
:104A30000AE0084304D0112010900020119077E77D
:104A40001098151A6D1E0BE01098824202DD0023AB
:104A50006D1C03E0824201DA00236D1E002BEED0B4
:104A6000069811998260C16030C07EE701FCFFFFAB
:104A7000104D0000000014400000F03F3000000026
:104A80000000F0430000E03FFFB597B00646002568
:104A900018E2252877D100242746FD49049400E038
:104AA0000443761C32780120203A90400842F7D126
:104AB00030782A280ED00222307801463039092970
:104AC00016D804990A235943303940181443761CE8
:104AD0000490F1E7189802C804911890002904DAAC
:104AE0000120400304434842049002200443761C02
:104AF00030782E2814D1042004437078761C2A289C
:104B000009D11898761C80C8189009E00A214F43F3
:104B1000303FC719761C3078014630390929F5D95C
:104B200030786C2810D006DC4C281AD068280ED0BB
:104B30006A2817D104E0742813D07A2812D110E023
:104B40000120400504430CE00121090501E0032197
:104B500009050C437178814203D101200005241816
:104B6000761C761C3078119066280BD013DC582800
:104B70007DD009DC00287BD04528F6D04628F4D02B
:104B800047281AD1A5E118E0632835D0642870D0F1
:104B9000652812D19DE170286CD008DC6728F1D01F
:104BA00069287BD06E280DD06F2806D1BAE0732813
:104BB0002ED0752871D0782859D01A9A1999904713
:104BC0006D1C7EE16002400F022809D003280DD041
:104BD0000428189801680DD00D60001D189070E130
:104BE0001898EA1701680D604A60F6E7189801689E
:104BF0000D80F2E70D70F0E718986A46017811729F
:104C0000001D18900020507202A80090012005E0BD
:104C1000189802C8189000200091C04361070DD574
:104C2000002101E00199491C0191B94212DA814247
:104C3000F8DB009A515C0029F4D10BE0002101E07F
:104C40000199491C01918142FADB019A0099895C22
:104C50000029F5D1019904981A9B471A2146384634
:104C6000199A00F097FA0199401945180BE04FE0A6
:104C70002CE113E04EE0009800990078491C009167
:104C80001A9A199990470198401E0190401CF2D140
:104C9000214638461A9B199A10E137E00A20002174
:104CA000009001916002410F022907D0189A01CAB1
:104CB0001892C2179446032908D00AE01898C01D1C
:104CC000C108C90005C91891944607E000B2C2178F
:104CD0009446042902D140B2C1178C460022614695
:104CE000944506DA0A460021404291418C462D2126
:104CF00002E0210504D52B216A461173012103E04E
:104D0000E10701D02021F7E7029155E00A200AE0EF
:104D1000102008E01020009000210420044301919D
:104D2000082703E008200021019100906002410F54
:104D3000022907D0189A01CA189200229446032922
:104D400008D008E01898C01DC108C90005C918910D
:104D5000944603E080B2042900D1C0B20021029140
:104D6000210729D51199702906D0009A1021019B9D
:104D70004A401A4305D00EE040216A4611730121D2
:104D800008E06146014306D030216A46117311994B
:104D9000517302210291009A0821019B4A401A4353
:104DA0000AD16146014301D1610705D530216A4628
:104DB000117301217F1E02911199582904D035A148
:104DC0000E910DA90D910DE037A1F9E76146019B08
:104DD000009AFBF7F7F90E9B8C469B5C0D9A521ECE
:104DE0000D92137061460143F0D10D9805A9081A80
:104DF00020300190600703D501200004844300E0C7
:104E000001270198874201DD381A00E0002001994E
:104E100000904118029809180498401A0490E00381
:104E200006D421461A9B199A049800F0B3F9451943
:104E3000002706E003A81A9AC05D199990476D1CD7
:104E40007F1C02988742F5DBE0030CD521461A9BB4
:104E5000199A049800F09EF9451904E01A9A302036
:104E6000199990476D1C0099481E00900029F5DCA7
:104E700008E00D980D990078491C0D911A9A19991E
:104E800090476D1C0199481E01900029F1DC63E1F7
:104E90000928010030313233343536373839616210
:104EA00063646566000000003031323334353637D4
:104EB00038394142434445460000000000F05AF9A9
:104EC0004519761C3078002800D0E2E528461BB052
:104ED000F0BD600700D406271898C01DC108C9009E
:104EE00048680A680831C30FDB071891190001D020
:104EF0009CA108E0210501D59BA104E0E10701D0B8
:104F00009AA100E09AA1430011985B0810916528CE
:104F10000CD006DC452809D046281DD0472841D1B1
:104F200041E0662818D067283CD13CE00021112FD1
:104F300001DB112000E0781C0191009008A911A864
:104F4000FFF7E8FC139905910021119A15927F1C37
:104F500012980197009150E00120C00703900120B2
:104F6000019008A9009711A8FFF7D4FC139A14998F
:104F700005920022119B009212981593059A0192B6
:104F8000002901D0104602E0791C40180190381A1F
:104F900001D5019804E04042401E0090781C019029
:104FA000C01B029043E0012F00DA01270021112FDE
:104FB00001DD112000E038460191009008A911A8F8
:104FC000FFF7A8FC13990591119A002112981592E8
:104FD0000091019721070CD40599B94201DB019991
:104FE00000E00191012904DD159A491E515C302928
:104FF00006D0B84201DA011D05DA0121029115E05F
:105000000199491EEDE7002805DC0099411800913F
:105010000199091A03E0019A411C914200DD0191B6
:105020000099401A401C02900120C00703902007FD
:1050300006D402990198814202DB0020C04302900D
:1050400000206946C87707AF012103980337C907D5
:10505000884224D0022011902B201290039800281F
:105060000CDA404203902D20129007E00A210398A9
:10507000FBF789F830317F1E039039701199481E73
:1050800011900029F2DC03980028EFD1791E1298C4
:1050900008703078202108404530BF1E387006A8BF
:1050A000C01BC01D039010980078002800D001207C
:1050B000019941180298C017091803980918049813
:1050C000401A401E0490E00306D421461A9B199A08
:1050D000049800F05FF8451910980078002803D074
:1050E0001A9A199990476D1CE00324D521461A9B02
:1050F000199A049800F04EF845191CE00098002811
:1051000007DB00990598884203DD1598405C1999E2
:1051100001E0199930201A9A904700986D1C401CA4
:1051200000900298401E0290002804D11A9A2E2066
:10513000199990476D1C0199481E01900029DDDCEA
:1051400005E038781A9A7F1C199990476D1C0399CD
:10515000481E03900029F4DC21461A9B199A0498F2
:10516000ACE600002D0000002B0000002000000035
:1051700000000000F8B5044600251E4617468804C6
:1051800004D405E039462020B0476D1C641EF9D5D3
:105190002846F8BDFFB50446002581B01E46C80369
:1051A00001D5302700E02027880404D505E03846E3
:1051B0000399B0476D1C641EF9D5284605B0F0BDB3
:1051C0004A68002A06D00A68531C0B6010704868B1
:1051D000401E48607047000000000000000001020F
:1051E00003040607080902030405060708090A0B59
:1051F0000C0D0E0F10100102030405060708090A22
:105200000B0C0D0E0F100000B6530008D35300080E
:10521000C9530008CE530008C3530008BB5300080D
:105220002E2E2F2E2E2F2E2E2F2E2E2F44726976BD
:105230006572732F53544D3332463078785F48414E
:105240004C5F4472697665722F5372632F73746D6D
:105250003332663078785F68616C5F636F72746553
:10526000782E63002E2E2F2E2E2F2E2E2F2E2E2F09
:10527000447269766572732F53544D3332463078D9
:10528000785F48414C5F4472697665722F53726350
:105290002F73746D3332663078785F68616C5F6746
:1052A00070696F2E63002E2E2F2E2E2F2E2E2F2E56
:1052B0002E2F447269766572732F53544D333246E4
:1052C0003078785F48414C5F4472697665722F533D
:1052D00072632F73746D3332663078785F68616CF7
:1052E0005F7063642E63002E2E2F2E2E2F2E2E2FF6
:1052F0002E2E2F447269766572732F53544D3332BC
:10530000463078785F48414C5F4472697665722F09
:105310005372632F73746D3332663078785F6861CF
:105320006C5F7263632E63002E2E2F2E2E2F2E2E77
:105330002F2E2E2F447269766572732F53544D337E
:1053400032463078785F48414C5F447269766572C6
:105350002F5372632F73746D3332663078785F68C1
:10536000616C5F7263635F65782E63007374726E45
:10537000636D702829203D202564006D61696E00F1
:1053800074686973206973207072616772616D203F
:10539000626F6F746C6F61646572007374617274B4
:1053A00020626F6F746C6F61646572005B25735D62
:1053B0002025733A20004E4F4E4500564552424F2D
:1053C0005345004445425547005741524E00494E0F
:1053D000464F004552524F52004C6F67676572004E
:1053E000005400080000002080010000D8060008DA
:1053F000C054000880010020F8120000064900088F
:105400003201320413352A1B0865041A71041A99F3
:10541000041AC9041A15041A41041113127A1379D3
:10542000271408DB261C08612810311A1F101A45A2
:10543000101AA704C11A61181A55041A6D041A49E2
:1054400004140902431302011CC03209661B010245
:105450000B13052416100105240110090104240270
:105460000205240617010705820308151009040127
:1054700033020A2E0705010240072A810711093766
:1054800044113A02441907112B0A0606112A40F06A
:105490002B0907500A3B04941A12171302021E40EC
:1054A000830440574D1B0203591339071B0833046B
:1054B0001A2F041A5D04071E040309041A030000CE
:04000005080000C12E
:00000001FF
